:020000040800F2
:10000000481B012001030008194100085939000864
:10001000993F000875160008ED4600080000000032
:1000200000000000000000000000000091410008F6
:10003000B9170008000000002141000879420008BB
:100040001B0300081B0300081B0300081B03000818
:100050001B0300081B0300081B0300081B03000808
:100060001B0300081B0300081B0300081B030008F8
:10007000A11700081B030008AD1700081B030008A8
:100080001B0300081B0300081B0300081B030008D8
:100090001B0300081B0300081B0300081B030008C8
:1000A0001B0300081B0300081B0300081B030008B8
:1000B0001B030008694300081B0300081B0300081A
:1000C0001B0300081B0300081B0300081B03000898
:1000D0001B030008B14600081B030008BD460008CA
:1000E0001B0300081B0300081B0300081B03000878
:1000F0001B030008754300081B0300081B030008CE
:100100001B0300081B0300081B0300081B03000857
:100110001B0300081B0300081B0300081B03000847
:100120001B0300081B0300081B0300081B03000837
:100130001B0300081B0300081B0300081B03000827
:100140001B0300081B0300081B0300081B03000817
:100150001B0300081B0300081B0300081B03000807
:100160001B0300081B0300081B0300081B030008F7
:100170001B0300081B0300081B030008000000000D
:100180001B0300081B03000800F002F800F0A8F8A9
:1001900014A696E8000CB244B344DA4501D100F04D
:1001A0009FF8BAE80F000FA696E83000A5EB04050B
:1001B00004EB0607AAEB0704A7F101074FEA1515A0
:1001C0004FEA3414A4F10104AC4201D300F088F8E2
:1001D00013F0010F18BFFB1A43F0010300F001F800
:1001E000DBE718470467000024670000103A24BFCB
:1001F00078C878C1FAD8520724BF30C830C144BF8C
:1002000004680C6070470000704700000023002461
:1002100000250026103A28BF78C1FBD8520728BF16
:1002200030C148BF0B6070476E2900F029827029E9
:1002300000F06B83662906F0AA82652906F0A78282
:10024000672906F0A482612906F0A38203681B0ACD
:1002500028BF41F08001692900F0D681642900F0AF
:10026000D381752900F0D0816F2900F0F9827829B7
:1002700000F03783E92900F09382E42900F09082AE
:10028000F52900F08D82EF2900F0F682F82900F0C0
:1002900036830368DB0928BF41F08001632901F040
:1002A0006980732901F06E80E32901F07980F329D8
:1002B00001F07E80002070471FB506F05BFA01F068
:1002C000CDF804000020002106F03EFA401C6060DA
:1002D0000020002106F022FAE0601FBD10B510BD1D
:1002E00001F08EF81146FFF7E7FF04F001FA01F084
:1002F0006BF903B4FFF7F2FF03BC01F0B3F90000A0
:100300000948804709480047FEE7FEE7FEE7FEE7A9
:10031000FEE7FEE7FEE7FEE7FEE7FEE704480549E5
:10032000054A064B70470000554300088901000844
:1003300048070120481B0120480B0120480B0120E1
:1003400053EA020C00F069802DE9F04B4FF00006F3
:10035000002B1FBFB3FA83F503FA05F424FA05F660
:100360005E4012BF1643B2FA82F502FA05F4C5F1F7
:1003700020051EBF22FA05FC44EA0C04203556EA8B
:10038000044C4FEA144418BF641C4FF000084FF0AF
:100390000009904271EB030C39D3002919BFB1FA5F
:1003A00081F701FA07F6B0FA80F700FA07F6C7F10D
:1003B00020071EBF20FA07FC46EA0C062037B6FBD2
:1003C000F4FCA7EB0507103F07F01F0BCBF120064D
:1003D0002CFA06F60CFA0BFB44BFB3460026202F7E
:1003E000A4BF5E464FF0000B5BEA060C08BF4FF05F
:1003F000010B19EB0B0948EB0608ABFB027C06FB73
:1004000002CC0BFB03CCC01B71EB0C01C1E70B460C
:10041000024641464846BDE8F08B13B5084318BF75
:100420004FF0FF300146AFF30080BDE81C4070473D
:100430001CB50C46064B7B4469460090204600F0F4
:1004400038F904460020694600F046F920461CBDF4
:100450009F020000032A40F2308010F0030C00F0ED
:10046000158011F8013BBCF1020F624498BF11F8EE
:1004700001CB00F8013B38BF11F8013BA2F10402A7
:1004800098BF00F801CB38BF00F8013B11F003031F
:1004900000F00A83083AC0F0088051F8043B083A9B
:1004A00051F804CBA0E80810F5E7121D5CBF51F825
:1004B000043B40F8043BAFF30080D20724BF11F89F
:1004C000013B11F801CB48BF11F8012B24BF00F804
:1004D000013B00F801CB48BF00F8012B704702F048
:1004E000FF0343EA032242EA024200F002B84FF05F
:1004F000000200B5134694469646203922BFA0E874
:100500000C50A0E80C50B1F12001BFF4F7AF09077F
:1005100028BFA0E80C5048BF0CC05DF804EB890070
:1005200028BF40F8042B08BF704748BF20F8022BB3
:1005300011F0804F18BF00F8012B704770477047CB
:10054000704770B5044685690068C10601D530263C
:1005500000E02026C00707D070BDD4E90121304655
:100560009047206A401C20626D1EF6D570BD70B5A4
:10057000044685690078C00707D170BDD4E9012120
:1005800020209047206A401C20626D1EF6D570BD69
:1005900009684A0501D540B27047C905FCD500B2CB
:1005A000704709684A0501D5C0B27047C905FCD536
:1005B00080B2704770B50C460546012A05D02878F0
:1005C000800600D5EA69002302E0012305E05B1CF8
:1005D000934202D2E05C0028F9D1A869E618C01A5B
:1005E000A861286A184428622846FFF7AAFF04E099
:1005F000D5E9012114F8010B9047B442F8D32846FD
:10060000FFF7B5FF70BD00002DE9F041064600245C
:1006100010687529314616A510D0FFF7B9FF0028DC
:1006200002DA404213A507E031688A0701D512A516
:1006300002E0490704D511A5012401E0FFF7B1FF4D
:1006400000210A2206F1240709E0B0FBF2FCB0FB0E
:10065000F2F302FB1C00303078541846491C002885
:10066000F3D123462A463046BDE8F04100F093BA64
:10067000000000002D0000002B0000002000000002
:1006800011680268006A530501D508700AE0D305B5
:1006900001D5088006E0130603D5C217C1E90002A0
:1006A00000E008600120704701694A1C0261087877
:1006B000704700B58FB0CDE90131002105910549A2
:1006C0007944CDE903101146684600F029F90FB0CE
:1006D00000BD0000E5FFFFFF0A6802F8010B0A6099
:1006E000704700002DE9FF5F15468A460446DFF893
:1006F000AC80F8440027D8E900103E46CDE9001050
:1007000010E03AF816106A4602A800F055FE411CA7
:1007100007D02178890603D5E269391891420DD8AE
:100720000744761C2078800602D5E069B84205DDD2
:10073000AE42E6DB3AF816000028E2D1A069C01B01
:10074000A0612046FFF7FDFED8E90010CDE90010BA
:10075000002017E03AF818106A4602A800F02CFEB4
:10076000B0F1FF3F81460BD000250DF1080B05E0ED
:10077000D4E901211BF8050090476D1C4D45F7D3C6
:1007800008F10100B0428046E4DB206A3844206270
:100790002046FFF7ECFEBDE8FF9F0000A2600000CE
:1007A0002DE9F0418046D21D22F007020025D2E952
:1007B0000002F52915A614D0011E72F1000106DA17
:1007C0000023D0EB030063EB020211A608E0D8F887
:1007D00000108B0701D50FA602E0490701D50EA630
:1007E00001251146002408F1240704E000F08EF9E9
:1007F00030323A55641C50EA0102F7D12B4632469A
:1008000021464046BDE8F04100F0C5B900000000B7
:100810002D0000002B0000002000000030B400215B
:1008200000F1240408E002F00705D208303542EA5E
:100830004372DB086554491C52EA0305F3D104688E
:10084000002310A2250708D504F020040C4304D08F
:10085000C46901230CA2641EC46130BC00F09BB9C2
:1008600010B5044621461068FFF79BFE024620465D
:10087000BDE810400023D1E7D21D22F00701D1E9E5
:100880000023CBE70000000030000000F0B40D466C
:100890000188090502D5214C7C4402E01F4C7C44B0
:1008A0000E34002100F1240608E002F00F071209BF
:1008B000E75D42EA03721B097754491C52EA0307B9
:1008C000F3D102780023120704D5702D06D009B1A8
:1008D000022311342246F0BC00F05DB9012310342C
:1008E000F8E770B504460D4621461068FFF759FE3B
:1008F000024629462046BDE870400023C6E7D21DC7
:1009000022F00703D3E90023C0E70368126843F02D
:10091000200303600823C3610023B7E7045F0000DE
:100920002DE9F05F894604464FF0000ADFF874B104
:10093000FB44C0F820A02046E1688847002874D016
:10094000252806D0D4E901219047206A401C206266
:10095000F1E700265F462046E168884720280546E3
:1009600007DB312D05D2781910F8200C08B10643A9
:10097000F1E7B00701D526F00406C4F81CA0002753
:10098000C4F818A02A2D09D0284605F0BFFE38B3B8
:1009900004EB8708303DC8F8185019E059F8041BDB
:1009A000204604EB87029161E1688847012F0546E4
:1009B00018D1E069002820DA26F020061DE0D8F8DA
:1009C000180000EB800005EB40003038C8F8180034
:1009D0002046E1688847054605F098FE0028EED1DC
:1009E000012F0AD02E2D08D12046E16888477F1CB0
:1009F0000546022F46F02006C4DBA069002803DA72
:100A0000404246F00106A061F00701D026F0100632
:100A10006C2D0BD0682D09D04C2D39D06A2D35D0D6
:100A2000742D35D07A2D33D016E038E0E1682F46AA
:100A300020468847B842054609D16C2F26D04FF48E
:100A40008060E168064320468847054604E06C2F35
:100A50001AD04FF4807006430DB3A5F14100192858
:100A600002D8203546F400664A46294620462660CC
:100A70004E46FFF7D9FB80B101280BD0F61D26F0BA
:100A8000070000F1080956E74020E4E78020D8E796
:100A90000020D6E706F104094DE7284652E7206A10
:100AA000BDE8F09F945E000010B5203AC0F00B80C6
:100AB000B1E81850A0E81850B1E81850A0E8185054
:100AC000203ABFF4F5AF5FEA027C24BFB1E81850CA
:100AD000A0E8185044BF18C918C0BDE810405FEA2C
:100AE000827C24BF51F8043B40F8043B08BF7047A8
:100AF000D20728BF31F8023B48BF11F8012B28BFAD
:100B000020F8023B48BF00F8012B704730B5B0F128
:100B10000A0271F100034FEA900E4EEA817EB0EBBB
:100B20000E0061EB91014FEA101E4EEA017E10EBC0
:100B30000E0041EB11114FEA102E4EEA016E10EB40
:100B40000E0041EB11214FEA104E4EEA014E10EB20
:100B50000E0041EB1141401841F100014FEAD00075
:100B600040EA41704FEAD1014FEA810444EA9074AF
:100B700010EB800544EB01046D1944EB0404521B97
:100B8000A3414FF0000348BF0A3200D530BD401CDE
:100B900041F1000130BD2DE9F0470D4699469246DE
:100BA000044600F124080168880604D5E06921F0B4
:100BB0001001216000E00120A84201DD471B00E098
:100BC0000027A1697A1902EB0900081AA0612078B0
:100BD000C00602D42046FFF7B4FC002608E0D4E9A2
:100BE00001211AF806009047206A401C761C2062FA
:100BF0004E45F4DB2078C0060AD52046FFF7A1FC5D
:100C000006E0D4E9012130209047206A401C206290
:100C1000381EA7F10107F4DC07E0D4E9012118F838
:100C200005009047206A401C2062281EA5F101059E
:100C3000F3DC2046FFF79BFC2078000602D502205B
:100C4000BDE8F0870120FBE72DE9FF4F0C461E466B
:100C50004FF0FF378BB0D2E90001DDF860800A90D9
:100C60008A46C1F30A5505B93D46002108464FF0B2
:100C70000000BAF1000F00F4400005DA00EB80003C
:100C80004FF4400101EA50004FEA9059B9F1010FC9
:100C900000DDB9460A9850EA4A000ED044F61050DA
:100CA000A5F2FF3545432F14B8F1000F1ED0754251
:100CB000291E1EDDC9F100021CE0B8F1010F4FF042
:100CC000000001D0302103E0F24305E02154401C34
:100CD000B042FBDB30460022002121540B99C1F8C1
:100CE0000880C1E900200FB0BDE8F08FBD1B6D1C6E
:100CF000DEE74A4600DA694206A800F0F3FB06ABDD
:100D000093E8070003AB83E8070050460A9905F013
:100D10001CF98DE80700A0F500501F3800900398DB
:100D2000002D0ADD42F21F014A460844002303A9B0
:100D30000390684605F086FB09E0A0F500504A469E
:100D40001F38002303A90390684605F090FB8DE847
:100D500007000004000C03D04FF0FF30410800E012
:100D60001046B8F1000F03D00022009215461EE095
:100D7000751E05D4FFF7CAFE303262556D1EF9D5D7
:100D8000B3460122084302D000227F1C04E02078F1
:100D9000302801D100227F1E002A099784D01DE04F
:100DA000112D07DAFFF7B2FE303262556D1C50EAA2
:100DB0000102F5D1084302D00098C8B10EE000212D
:100DC000681E05E0235C625C63542254401E491C8B
:100DD0008142F7DBAB46A81B401E0990002004F8B7
:100DE0000B000B98099AC0F80880C0E9002B7AE73D
:100DF00011264FF0000857E72DE9F04F88460446CA
:100E0000D21D22F0070191B0D1E90001CDE90A011C
:100E100005F064FC02460B98C00F01D02D2007E0BE
:100E20002068810701D52B2002E0202101EAC000C3
:100E3000032A099001D0072A05DB034641462046D4
:100E400000F010FB0BE12078800601D5E06900E09E
:100E50000620B8F1650F814606D0B8F1660F18D0AC
:100E6000B8F1670F70D131E00020B9F1110F009097
:100E700001DB112301E009F101030AAA01A90CA871
:100E8000FFF7E2FEDDE90C70002609F1010583465B
:100E900047E001204B4600904FF000470AAA01A905
:100EA0000CA8FFF7D1FEDDE90DB00C995D460026D8
:100EB00010B909F101000D18B9EB050003D4C0F118
:100EC000FF3609F10105A5EB09002BE0B9F1010F8F
:100ED00001DA4FF001090020B9F1110F00904846E6
:100EE00001DD112300E003460AAA01A90CA8FFF7BF
:100EF000ABFEDDE90C704D460026834620780007E6
:100F00000AD4AB4500DA5D4601A8012D04DD411984
:100F100011F8011C302907D04F4502DA17F1040FF0
:100F200004DA012082460FE06D1EEEE7002F02DC9E
:100F3000ED1B3E4403E0781CA84200DD7D1CB81B7D
:100F400000F1010A4FF000472078000703D4AA45BA
:100F500001DB4FF0FF3A0021B7F1004F0DF14308DC
:100F60008DF8431024D002202B23002F01DA7F427A
:100F70002D230A21021EA0F1010000DC5FB197FBC6
:100F8000F1FC97FBF1F201FB1C7C17460CF1300CD5
:100F900008F801CDEEE7A8F10100037021880905EA
:100FA00001D5452100E06521A0F1010800F8011CF0
:100FB00009980FA9A1EB0807FF1D00B101204119F5
:100FC00001EBEA70A1693844081A401EA06120783C
:100FD000C00602D42046FFF7B4FA099828B1D4E934
:100FE00001219047206A401C20622078C00622D54B
:100FF0002046FFF7A6FA1EE0002E04DBB34502DD13
:1010000001A8805D00E03020D4E901219047206AEA
:10101000401C2062761CAAF101005FEA000A0AD196
:1010200000F01CFAC0680168405CD4E901219047D7
:10103000206A401C2062281EA5F10105DCDC07E0C7
:10104000D4E9012118F8010B9047206A401C206266
:10105000381EA7F10107F3DC2046FFF788FA0320CA
:1010600011B041E62DE9F04F04460D46D21D22F0A5
:10107000070089B0D0E900974846394605F02EFBB5
:101080000246F80F01D02D2307E02068810701D523
:101090002B2302E0202101EAC0038DF820300BB1A0
:1010A000012000E00020032A824601D0072A04DB49
:1010B0002946204600F0D6F93FE12078800601D489
:1010C0000D2500E0E569C7F30A560D2D49DA002128
:1010D0004FEA175B08464FF00000002F00F4400075
:1010E00007DA00EB80004FF4400100EBD07001EA1A
:1010F00060008115012901DD4FF0FF3100224FEA28
:10110000850CBCF1180F06D31346ACF118004FF054
:101110008052C24003E04FF4801323FA0CF30CF129
:101120000C0CBCF1200F04D3ACF1200C09FA0CF02C
:1011300001E007FA0CF000294FF0004801DD18B972
:101140000FE00ED140450CD319EB02095F4121B9E4
:10115000404502D19F4329EA0209BBEB175F00D04B
:10116000761C2088000502D57B48784402E07A4846
:101170007844193808AA302302F80A30037C0AF1AF
:101180000101002E0AF1020A53546A4602DC4FF0B4
:10119000300101E04FF031014FF001088DF80010EF
:1011A00002D0A6F2FF3603E059EA470100D06B4EA9
:1011B000002D02DC2178090704D54FF002082E210A
:1011C0008DF80110C44600210BE0C7F303433F0133
:1011D000C35C491C6D1E02F80830052908F101089E
:1011E00001DA002DF1DC00210CE000EB1973491C41
:1011F0001B786D1E082902F808304FEA091908F11A
:10120000010801DA002DF0DC21688B0602D516E01A
:10121000A8F10108E04505DD02EB080313F8013CE5
:10122000302BF5D0B8F1000F09DD02EB080313F8FD
:10123000013C2E2B03D1090701D4A8F10108002D90
:1012400005DD3E2102F808106D1E08F10108407C02
:10125000002E02F8080008F1010804DA2D20764279
:1012600002F8080002E02B2002F808000A214FF4DF
:101270007A70864208F101080BDB96FBF0F33033FD
:1012800002F8083096FBF0F308F1010800FB136642
:1012900001E0642E0CDB642096FBF0F3303302F89F
:1012A000083096FBF0F308F1010800FB136601E03B
:1012B0000A2E06DB96FBF1F0303002F8080008F148
:1012C000010896FBF1F001FB1060303002F80800D5
:1012D000A16908F1010808EB050202EB0A00081AEF
:1012E000A0612078C00602D42046FFF72AF9216ABF
:1012F00008AE01EB0A00206204E0D4E9012116F8EF
:10130000010B9047BAF1010AF7D22078C00602D546
:101310002046FFF716F96E4609E016F8010B3E2845
:101320000FD0D4E901219047206A401C2062B8F117
:101330000108F2D22046FFF71AF909B00320BDE8F0
:10134000F08F206A2844206203E0D4E90121302094
:1013500090476D1EEBD3F8E77E56000002FCFFFFBE
:1013600010B5436913B1AFF3008001E0FFF722F934
:10137000012010BD127800F124010A7000224A7089
:101380000122EDE711684FF0FF32E9E710B543693C
:1013900013B1AFF3008001E0FFF7A4F9012010BD05
:1013A000128800F1240182840022C2840122EDE728
:1013B00011684FF0FF32E9E72DE9F04116460C467F
:1013C000054600F043F8036893F80101012807D0AF
:1013D000FF2C12D8185D80B101202C70BDE8F0817F
:1013E000D3F807013246214603F20713C7182846EF
:1013F000BC46BDE8F041002360474FF0FF30EDE709
:10140000754600F0EBF8AE4605006946534620F0FD
:101410000700854618B020B5FEF780FFBDE82040E4
:101420004FF000064FF000074FF000084FF0000BA0
:10143000AC46ACE8C009ACE8C009ACE8C009ACE80F
:10144000C00921F007018D467047000010B500F07B
:1014500005F8001D10BD00BFF152000000487047A4
:10146000380000202DE9F0411F460446032601689C
:10147000072A01F4006004DB08B116A505E016A5F3
:1014800003E008B115A500E015A521F010002060CB
:10149000A069C01EA0610FB1401EA0612046FFF7E9
:1014A00050F84FB1D4E9012138469047206A401CDA
:1014B0002062C01C206206E0206AFAE7D4E901211C
:1014C00015F8010B9047761EF8D22046FFF74FF82B
:1014D000BDE8F0814E414E006E616E00494E4600FF
:1014E000696E66002DE9F047814616468AB0354898
:1014F00078440DC88DE80D0032487844801C03AC58
:101500000DC884E80D0041F69B300844372190FB5C
:10151000F1F290FBF1F5A5F1800501FB12041B3CF3
:1015200002D56442012000E00020DFF898A0804648
:101530000027FA44AAF1BE0A0EE0E0070AD03246BC
:10154000684607EB470101230AEB810104F08FFF96
:101550008DE8070064107F1C002CEED1194F7F44EA
:10156000AE3F19E0E80715D007EB04100DF1180A9B
:1015700090E80E008AE80E00C068F04201D1981988
:1015800008903246012306A903A804F070FF03ABBC
:1015900083E807006D10641C002DE3D14FF00103B8
:1015A00032466946B8F1000F03A802D004F04AFFA2
:1015B00001E004F05CFFC9E90001C9F808200AB0A5
:1015C000BDE8F0878853000010B50446AFF30080F3
:1015D0002046BDE81040FEF78CBE00000048704772
:1015E000180000200000000030B44FF0013C50F81B
:1015F000042B51F8043BCCFA52F4D51A20D1FCB993
:1016000050F8042B51F8043BCCFA52F4D51A17D1F8
:10161000B4B950F8042B51F8043BCCFA52F4D51A63
:101620000ED16CB950F8042B51F8043BCCFA52F4AB
:10163000D51A05D1002CDAD030BC4FF0000070472D
:1016400029BAB1FA81F111F01801D1F120008440DA
:10165000F2D1CA40CB4012F0FF0213F0FF0330BCBE
:10166000D01A704701491820ABBEFEE726000200E1
:1016700070470000FEE700007047000070B540F2C0
:101680005D14C2F20004207840F25C15C2F200053D
:10169000287030B10020002102F0B4FC2878012825
:1016A00006D00120002102F0ADFC2878022809D0E4
:1016B0000220002102F0A6FC2878032802D1032191
:1016C00005E000BF0320002102F09CFC297818A04F
:1016D00002F07CFD40F20C06C2F200062878B6F952
:1016E000001002F08FFC40F6B83003F043F8297880
:1016F00019A002F06BFD31882878494209B202F046
:1017000081FC40F6B83003F035F829781BA002F0D0
:101710005DFD2878002102F075FC4FF4FA6003F0BB
:1017200029F82078013000F00300207070BD00BF60
:101730000D0A2D2D3E2054657374696E67204D6F20
:10174000746F722025643A20464F5257415244200C
:101750003C2D2D0D0A0000002D2D3E205465737484
:10176000696E67204D6F746F722025643A20524570
:101770005645525345203C2D2D0D0A002D2D3E205F
:1017800054657374696E67204D6F746F72202564A1
:101790003A2053544F50203C2D2D0D0A00000000DC
:1017A00040F26010C2F2000000F086B840F2C010B3
:1017B000C2F2000000F080B87047000080B540F22F
:1017C0002020C2F200003C2101F002F940F2B020DA
:1017D000C2F200003C2101F0FBF840F24030C2F2BE
:1017E00000003C2101F0F4F840F28830C2F2000021
:1017F0003C21BDE8804001F0EBB8000072B600BFAC
:10180000FEE7000070B5866D044600F0C7FA94F854
:101810003510022928D105462068216C026822F083
:1018200016020260426922F08002426109B9A16C8D
:1018300019B1016821F008010160016821F001017E
:10184000016000BF20680068C00715D000F0A6FA4C
:10185000401B0628F6D320206065032084F835005D
:10186000002184F8341070BD8020606501200021C3
:1018700084F8341070BD00BFE06D3F2101FA00F024
:10188000B060012084F835000020002184F8341075
:1018900070BD000090F83510022909D1052180F8AB
:1018A00035100068016821F00101016000207047D7
:1018B0008021416501207047F0B581B00021009181
:1018C00040F20801C2F200010B68D0E9166148F24B
:1018D000B51537680822C1F64E358A403A42A3FB57
:1018E00005350CD003681C68640708D51C6824F013
:1018F00004041C60B260426D42F0010242650122A4
:101900008A403A4208D003685B691B0604D5B2607E
:10191000426D42F00202426504228A403A4208D0F7
:1019200003681B689B0704D5B260426D42F0040255
:10193000426510228A403A4219D001680B681B07A1
:1019400015D5B2600B680A685B0309D4D20509D4C7
:101950000A6822F008020A60016C29B907E000BF9A
:10196000110341D4016C11B1044688472046C26D71
:10197000202101FA02F33B4243D001680F68FF06C1
:101980003FD5B36090F835700B68052F1CD123F05C
:1019900016030B604B6923F080034B61036C0BB99A
:1019A000836C1BB10B6823F008030B603F2191404F
:1019B000B160012180F83510016D0022002980F806
:1019C000342054D158E000BF0A685B0310D4D2051C
:1019D00012D40A6822F010020A60012180F8351042
:1019E000002180F8341007E0816C0029BCD1BEE7EB
:1019F000110301D4416C00E0C16B11B1044688476A
:101A00002046416DC1B3416DC9072ED0052180F834
:101A100035100168AA0A0B6823F001030B60009BD4
:101A20000133934200931AD80B68DB0717D0009B51
:101A300001339342009312D80B68DB070FD0009B51
:101A40000133934200930AD80B68DB0707D0009B51
:101A500001339342009302D80B68DB07DFD10121E9
:101A600080F83510002180F83410C16C21B101B02C
:101A7000BDE8F040084700BF01B0F0BD2DE9F041DE
:101A8000044600F08BF9ECB10546022084F83500DD
:101A90000020216884F83400086820F00100086004
:101AA00021680868C00711D000F078F9401B0528AC
:101AB000F6D9032520230320636584F83550BDE85B
:101AC000F08100BF0120BDE8F08100BF086848F246
:101AD0003F02CFF21002D4E9013500EA020C04F112
:101AE0000C0898E8C10143EA0C032B431843D4E9DE
:101AF000072E304338431043626A40EA0E00042A3E
:101B000040EA08031CD1206BD4E90A2E40EA0E00FB
:101B1000184308604869BEF1000F20F0030040EA56
:101B2000020040F0040C11D0B8F5005F36D0B8F1D7
:101B3000000F45D1022A46D0012A3BD032B942E0FB
:101B40000B60486920F0070040EA020C01F0F80041
:101B50004AF6AB221038CAF6AA22A0FB02231A09C1
:101B600046F6AC03C1F814C0C0F600039A5C40F21C
:101B7000FF335F284FF03F0021EA030100FA02F033
:101B800088BF0431C4E916128860002301250020B3
:101B9000636584F83550BDE8F08100BF032AD5D8CD
:101BA000012540230120DFE802F0030E030500BFFA
:101BB00082E700BFAEF1C070B0FA80F0400904E0E7
:101BC000032A04D3C2D1CEF300600028BED0012581
:101BD00040230120636584F83550BDE8F0810000A2
:101BE0002DE9F04F83B000F1200200F13E4741F6AD
:101BF0000045009207F1FF77C4F2020508224FEA80
:101C0000B726A84208BF072200254FF000084FF072
:101C10000009072E38BF4FEAB72201920AE000BF41
:101C200009F1010908F10208B9F1100F05F10405E5
:101C300000F0A2800F68012202FA09FE17EA0E0ADC
:101C4000EED0D1F804C003220CF003077E1E02FA86
:101C500008F4012E6FEA040B12D88468CE6804EAF7
:101C60000B0406FA08F634438460446824EA0E063E
:101C7000CCF3001404FA09F42643466004E000BFE4
:101C8000032F01D103271EE0C6688C6806EA0B0605
:101C900004FA08F42643022FC66014D16FF0030241
:101CA000009E02EA590756F807C005F01C040F22EF
:101CB0000B69A2402CEA0202A3401A43F251D1F868
:101CC00004C00CF00307026807FA08F302EA0B02EB
:101CD0001A431CF4403F0260A2D0002243F64403A2
:101CE0000292C4F202031A6843F6004442F48042AE
:101CF0001A601A68C4F2010402F480420292029A45
:101D000029F003024FF6084C2244CFF6FF7C52F82C
:101D10000C3005F00C070F26BE40B343019E06FAB7
:101D200007F73B4342F80C30A2684B6842EA0A07C7
:101D300043F60C4CDE0258BF22EA0A07A760C4F241
:101D4000010CDCF800209E0242EA0A0758BF22EA92
:101D50000A07CCF8007062689E0342EA0A0758BF7F
:101D600022EA0A0767602268DB0342EA0A0758BFD3
:101D700022EA0A07276053E703B0BDE8F08F0000AE
:101D8000426902EA0103914341EA034181617047DC
:101D9000002A08BF090481617047000040F2EC404E
:101DA000C2F201000068704740F2000040F2EC41CE
:101DB000C2F20000C2F2010100780A681044086013
:101DC0007047000080B543F60040C4F2020001688D
:101DD00041F400710160016841F4806101600168B3
:101DE00041F480710160032000F0C2F8052000F08A
:101DF00005F800F05DF8002080BD000070B586B0E9
:101E0000002543F640010195C4F202010A68044628
:101E100042F480720A60096801A801F4807101919E
:101E20000199694600F066F9049E002E18BF01264C
:101E300000F080F94DF68361B040C4F21B31A0FB85
:101E400001014FF0FF3000EB914140F2682042F277
:101E50000002C2F20000C4F2000240F2E733C0E91F
:101E60000021C0E902530561856100F0F9FB08B16A
:101E700006B070BD40F26820C2F2000000F020FC05
:101E80000028F5D12D2000F035F80F2C0CD82D208E
:101E90002146002200F040F840F204010020C2F286
:101EA00000010C6006B070BD012006B070BD0000DE
:101EB00082B0002043F640010190C4F202014A685A
:101EC00042F480424A604A6802F480420192019AD8
:101ED00000900868002240F08050086008680F21D8
:101EE00000F08050009000986FF0010002B000F008
:101EF00013B80000002848BF704700F01F010122FE
:101F000002FA01F11C2202EAD0004EF20012CEF2D7
:101F1000000281507047000010B54EF60C5CCEF206
:101F2000000CDCF80030C3F3022E8EF00704042C02
:101F300028BF0424BEF103034FF0FF3E0EFA04F461
:101F400038BF0023A14399400EFA03F39A4311438B
:101F500000F00F0200F160430901043A03F5644305
:101F60006244002848BF02F10C03197010BD000044
:101F70004EF60C51CEF200010A684FF6FF031A40EC
:101F800060F30A2242F0806040F0FD700860704704
:101F9000002804BF012070472DE9F04143F60808EE
:101FA000C4F202080446D8F8F8030D4600F0070012
:101FB000884207D288F8F853D8F8F80300F00700F1
:101FC000A84277D12068810717D5410705D5D8F8F1
:101FD000001041F4E051C8F80010010705D5D8F809
:101FE000001041F46041C8F80010D8F80010A26851
:101FF00021F0F0011143C8F80010C00740D1D8F813
:10200000F80300F00700A84207D988F8F853D8F879
:10201000F80300F00700A8424CD12068410707D51B
:10202000D8F80010E26821F4E0511143C8F800101C
:10203000000708D5D8F80000216920F4604040EA84
:10204000C100C8F8000000F09DF8D8F8001046F66E
:102050009402C1F30311C0F60002515C40F2080281
:1020600020FA01F140F20400C2F200000068C2F25E
:1020700000021160FFF7C2FE0020BDE8F08100BF42
:102080006068811E022907D258F8081C89015CBFCC
:102090000120BDE8F08111E0012807D158F8081CA3
:1020A00089035CBF0120BDE8F08107E058F8081CF7
:1020B000890703D40120BDE8F08100BFD8F80010E3
:1020C00021F003010843C8F80000FFF767FE064649
:1020D00041F28837D8F80000616800F00C00B0EBDE
:1020E000810F8CD0FFF75AFE801BB842F2D9032033
:1020F000BDE8F0810F22026043F60802C4F202023A
:10210000136803F003034360136803F0F003836074
:10211000136803F4E053C360D2F800C04FF4E053F7
:1021200003EADC030361D2F8F80300F0070008605B
:102130007047000040F2080043F60801C2F20000B8
:10214000C4F202010068096846F6A402C1F38221C4
:10215000C0F60002515CC8407047000040F2080021
:1021600043F60801C2F20000C4F2020100680968E7
:1021700046F6A402C1F34231C0F60002515CC840E9
:102180007047000010B543F60404C4F2020460680E
:1021900000F00C0142F200400829C0F2F40007D020
:1021A000042918BF10BD41F20020C0F27A0010BD12
:1021B000216801F03F02216823684902C3F38811B6
:1021C00006D4A1FB00010023FEF7BAF807E000BF28
:1021D00041F20020C0F27A004843B0FBF2F02168DF
:1021E0000222C1F3014102EB4101B0FBF1F010BD4D
:1021F000002804BF012070472DE9F04182B0044659
:10220000007843F60006C007C4F202060CD0B0689E
:1022100000F00C00042840F081803068800303D572
:102220006068002800F06881207880071BD5B068BE
:1022300010F00C0F09D0B06800F00C00082840F036
:1022400087807068400200F183803068800703D582
:10225000E068012840F050813068216920F0F800E2
:1022600040EAC10030602078000713D4207840078E
:102270002AD4A569002D00F03A81B06800F00C0066
:10228000082840F0A580012D40F00E81012002B009
:10229000BDE8F0816069002800F082800020C4F26F
:1022A00047200121C0F8801EFFF778FD054600BFDA
:1022B000706F8007DAD4FFF771FD401B0228F7D951
:1022C000032002B0BDE8F081306C5FEAC0080AD498
:1022D00000200190306C40F080503064306C00F091
:1022E00080500190019847F20007C4F20007386857
:1022F000C00547D4386840F480703860FFF74EFD61
:10230000054600BF3868C0053CD4FFF747FD401BB9
:102310000228F7D9032002B0BDE8F081B06800F0D0
:102320000C00082803D1706840023FF576AF616861
:102330003068B1F5803F07D0B1F5A02F40F09A800A
:1023400040F480203060306840F4803030609AE0A3
:10235000E068002840F20000C4F247205CD0012170
:102360000160FFF71BFD0546306880073FF574AF3D
:10237000FFF714FD401B0228F6D9032002B0BDE888
:10238000F08100BFA168306F012905D0052955D122
:1023900040F004003067306F40F00100306756E0D5
:1023A0000020C4F247200021C0F8801EFFF7F6FC91
:1023B000054600BF706F80077FF558AFFFF7EEFC52
:1023C000401B0228F6D9032002B0BDE8F08100BF0F
:1023D0000027C4F2472700203866FFF7DFFC022DF4
:1023E00005460DD13068800140F18A80FFF7D6FCA8
:1023F000401B02284FF00300F4D902B0BDE8F08181
:102400003068800173D5FFF7C9FC401B02284FF0EC
:102410000300F5D9F1E700BF00210160FFF7BEFC22
:10242000054600BF306880077FF51DAFFFF7B6FC9B
:10243000401B02284FF00300F4D9DEE720F0010032
:102440003067306F002920F0040030677AD0FFF742
:10245000A5FC054641F28837306F800700F1848083
:10246000FFF79CFC401BB842F6D9032002B0BDE840
:10247000F08100BF20F4803030603068002920F403
:10248000802030607AD0FFF789FC054630688003F1
:102490003FF5CAAEFFF782FC401B6428F6D9032043
:1024A00002B0BDE8F08100BF7068E16900F480020D
:1024B0008A4221D1216A00F03F028A421CD147F6AC
:1024C000C071626A0140B1EB821F15D1A16A4FF65B
:1024D000FF73C903994300F44032A1F580318A4269
:1024E0000AD1E16A00F07060B0EB016F04D1002006
:1024F00002B0BDE8F08100BF012002B0BDE8F0816C
:1025000004F11C052FCD084340EA8210D9034FF691
:10251000FF729143A1F5803140EA05600843706085
:1025200001203866FFF73AFC044600BF306880019E
:10253000DDD4FFF733FC001B02284FF00300F5D970
:102540005BE700BFFFF72AFC054641F2883700BF72
:10255000306F800708D5FFF721FC401BB8424FF0D1
:102560000300F5D949E700BFB8F1000F3FF581AE90
:10257000306C20F0805030647BE600BFFFF70EFC2B
:10258000054600BF306880037FF54EAEFFF706FCBE
:10259000401B64284FF00300F4D92EE77047000079
:1025A0007047000090F83C20012A4FF0020254D0FE
:1025B00010B580F83D200268D2F804E0D2F808C0D7
:1025C0000C682EF07003234341F2FF74C4F2000440
:1025D000A24253600EDC40F2FF73C4F200039A4241
:1025E00016DCB2F1804F2BD040F20043C4F200035E
:1025F00024E000BF40F2FF33C4F201039A4213DC2F
:1026000041F60003C4F200039A4219D0002313E0FC
:1026100040F60003C4F200039A4211D040F6004392
:10262000C4F200030AE000BF44F20003C4F2010355
:102630009A4205D040F20043C4F201039A4204D109
:1026400049682CF08003194391600121002280F831
:102650003D1080F83C20BDE8104010467047000057
:10266000002804BF0120704710B5044690F83D00D3
:1026700028B9002084F83C00204600F01FF8022012
:1026800084F83D002068211D01F07AFE012084F8C5
:10269000460084F83E0084F83F0084F8400084F847
:1026A000410084F8420084F8430084F8440084F830
:1026B000450084F83D00002010BD00007047000078
:1026C00090F83D1001291CBF01207047022180F8BD
:1026D0003D10006841F2FF72C168C4F200029042EE
:1026E00041F00101C1600DDC40F2FF71C4F2000154
:1026F000884215DCB0F1804F2AD040F20041C4F28C
:10270000000123E040F2FF31C4F20101884213DCF2
:1027100041F60001C4F20001884219D0002113E003
:1027200040F60001C4F20001884211D040F6004199
:10273000C4F200010AE000BF44F20001C4F201014A
:10274000884205D040F20041C4F20101884206D11E
:10275000816801F00701062904BF00207047016865
:1027600041F001010160002070470000002804BF13
:10277000012070472DE9F047044690F83D000D46D2
:1027800028B9002084F83C00204600F049F80220D7
:1027900084F83D00206844F207028168914381601B
:1027A000211D01F0EDFD20684FF6FF7881688269F8
:1027B000D0F820C0D5E9003ED5E9026A43EA010914
:1027C000AB6922EA080246EA03234FF6FC46B3430C
:1027D000D5E9076742EA0A0229691A4342EA062252
:1027E00042EA01112CF0AA026B6942EA0E0241EAA8
:1027F000073142EA0312C0F80890816102620120A9
:1028000084F8460084F83E0084F83F0084F84200D3
:1028100084F8430084F83D000020BDE8F087000004
:10282000F0B587B0006840F6FF31C4F2000188427D
:102830004FF000010691CDE90411CDE902112FDC22
:10284000B0F1804F60D040F60001C4F20001884230
:1028500040F0BC80002043F630010190C4F2020138
:102860000A6942F004020A610A6902F00402019254
:10287000019A01900A6842F002020A60096801F0B8
:10288000020101910199C02102910221CDE90310B9
:10289000CDE905010020C4F2020000F5806092E05D
:1028A00040F60041C4F20001884269D00021C4F220
:1028B0000101884240F08A80002043F630010190F7
:1028C000C4F202014A6942F001024A614A6902F017
:1028D00001020192019A01900A6842F010020A6016
:1028E000096801F01001019101994FF420610291F2
:1028F0000221CDE903100590012006900020C4F2CA
:10290000020000F580505EE0002543F6300001959E
:10291000C4F202000169002441F001010161016972
:10292000C4F2020401F001010191019901950168CD
:10293000022641F0010101600168012701F0010157
:10294000019101990195016841F00201016000685F
:1029500002A900F00200019001984FF4004002909B
:102960002046CDE9036505950697FFF739F908205C
:10297000CDE90206CDE90455069704F5806022E012
:10298000002043F630010190C4F202010A6942F0CE
:1029900008020A610A6902F008020192019A019094
:1029A0000A6842F001020A60096801F00101019120
:1029B0000199032102910221CDE90310CDE905011E
:1029C0000020C4F2020002A9FFF70AF907B0F0BD27
:1029D00080B590F83E2090F83F3090F842E090F8B3
:1029E00043C004290AD0B9B9012A4FF0010208BF37
:1029F000BEF1010F34D0104680BD00BF012B4FF057
:102A0000010208BFBCF1010FF5D1022180F83F108F
:102A100080F8431000681EE0012A4FF0010208BF51
:102A2000012BE8D1BEF1010FE5D1BCF1010FE2D1DC
:102A3000022280F83E2080F83F2080F8422080F873
:102A4000432091B10068016A21F001010162016A2D
:102A500041F00101016210216FF0100209E000BF96
:102A6000022180F83E1080F84210006801216FF0CA
:102A70000102036A1A400262026A1143016201689C
:102A8000002241F001010160104680BD7047000046
:102A900070B504460068C5680669B10716D515F01B
:102AA000020113D06FF002010161012121778069D9
:102AB000800703D02046FFF7E9FF05E0204600F03D
:102AC0008FF8204600F0F0F900202077700719D524
:102AD00015F0040016D020686FF004010161022196
:102AE0002177806910F4407F04D02046FFF7CEFFA5
:102AF00006E000BF204600F073F8204600F0D4F94D
:102B000000202077300717D515F0080014D0206872
:102B10006FF00801016104212177C069800703D0AB
:102B20002046FFF7B3FF05E0204600F059F82046A5
:102B300000F0BAF900202077F00619D515F0100042
:102B400016D020686FF01001016108212177C0695B
:102B500010F4407F04D02046FFF798FF06E000BF46
:102B6000204600F03DF8204600F09EF90020207736
:102B7000F00718BF15F0010002D1300609D412E0A9
:102B800020686FF001010161204600F017FA30065D
:102B900009D515F0800006D020686FF08001016132
:102BA0002046FFF7FBFC700609D515F0400006D063
:102BB00020686FF040010161204600F009FAB0067C
:102BC00058BF70BD15F0200008D021686FF02002BA
:102BD00020460A61BDE87040FFF7E2BC70BD00000E
:102BE0007047000090F83C30012B04BF0220704772
:102BF0004FEAB202032A00F2FF802DE9F043DFE83A
:102C000002F003B13F7F00BF036840F200461C6A38
:102C10001A6A24F0020422F001021A621A46D3F85A
:102C200004C052F818EF8F6843F48065C4F20106BF
:102C3000B54244EA070405D1CF6824F00C0427F01C
:102C400004073C430F68B54206D1D1E905582CF47E
:102C500040762E4346EA080C2EF073063743C3F83D
:102C600004C09F614F6809695F631C629F6947F0F8
:102C700008079F619F6927F004079F61B1E000BFCB
:102C8000036840F200481C6A1A6A24F4007422F4B3
:102C900080721A621A46D3F804C052F81CEF8F688B
:102CA00043F48065C4F20108454544EA072408D18D
:102CB000CF6840F2FF463F0224F4406427EA06064C
:102CC0003443D1F80090454506D1D1E905562CF49E
:102CD00040572E4347EA061C2EF0730747EA0907C0
:102CE000C3F804C0DF614F680969DF631C62DF69F4
:102CF00047F00807DF61DF6927F00407DF6170E054
:102D0000036840F20045D3F820C01A6A43F4806794
:102D100022F480521A621A465C6852F81C8FD1F86D
:102D200000E08E68C4F20105AF4204D14D6924F47D
:102D3000804444EA85142CF4005747EA063728F407
:102D4000E64646EA0E265C60DE614E6809691E644E
:102D50001F62DF6947F40067DF61DF6927F480677E
:102D6000DF613DE0036840F200481C6A1A6A24F003
:102D7000200422F010021A621A46D3F804C052F856
:102D800018EF8F6843F48065C4F20108454544EAB2
:102D9000071407D1CF686FF0400624F0C00406EA9C
:102DA00007163443D1F80090454506D1D1E90556C0
:102DB0002CF440672E4347EA860C2EF4E64747EA98
:102DC0000927C3F804C09F614F6809699F631C62AB
:102DD0009F6947F400679F619F6927F480679F613F
:102DE00009021368194311600021BDE8F043002275
:102DF00080F83C20084670470121002280F83C20E2
:102E000008467047002804BF0120704710B50446EB
:102E100090F83D0028B9002084F83C00204600F0DE
:102E20001FF8022084F83D002068211D01F0A8FA57
:102E3000012084F8460084F83E0084F83F0084F8BE
:102E4000400084F8410084F8420084F8430084F88C
:102E5000440084F8450084F83D00002010BD0000C7
:102E6000006840F20041C4F20001884218BF704778
:102E700080B582B00020019043F64000C4F2020009
:102E80000168002241F0020101600068052100F0A4
:102E90000200019001981D20FFF73EF81D2002B0AE
:102EA000BDE88040FFF726B870470000C1B1042993
:102EB00008D0082914BF41224022825C012A05D093
:102EC00016E000BF3F22825C012A11D102220829AC
:102ED00010D0042914BF80F8412080F83F200BE077
:102EE00090F83E20012A03D1022280F83E2003E020
:102EF0000120704780F84020006801F01F01012286
:102F0000036A02FA01F123EA01020262026A114332
:102F100041F2FF72C4F20002904201620CDC40F206
:102F2000FF71C4F20001884214DCB0F1804F37D049
:102F300040F2004116E000BF40F2FF31C4F201014F
:102F4000884215DC41F60001C4F20001884227D016
:102F5000002115E040F60001C4F2000188421FD0B4
:102F600040F60041C4F20001884219D01FE000BFC2
:102F700044F20001C4F20101884211D040F2004144
:102F8000C4F20101884212D1416C40F2004340F486
:102F90008062C4F2010341F400419A42416406D1C7
:102FA000816801F00701062904BF0020704701680D
:102FB00041F001010160002070470000006842F20A
:102FC0000001C4F20001884218BF7047FEF7ECBE52
:102FD000704700007047000070470000B0B582B035
:102FE00001680A68CC684B6902F02F05202D04F0B7
:102FF000200505D125B102B0BDE8B04001F064BAAA
:103000005FEA027C1EBF03F0010E04F4907313EB21
:103010000E0341D1036BD50618D5012B16D114F040
:10302000100313D0002201920A6801924A680192AB
:10303000019A496949064BD4818DC28DC38D002BFD
:1030400018BF914240F0068202B0B0BD13062DD5E4
:1030500014F080032AD090F84120212AF4D182680C
:10306000B2F5805F03D10269002A00F07982026A1A
:10307000531C036212784A60C28C013A1304C28462
:10308000E2D1C86820F08000C860C86840F0400005
:10309000C86002B0B0BD00BFD30718BF14F480737E
:1030A00040F0E280530700F1E580EAE05206CBD51C
:1030B00014F04002C8D0CA6822F04002CA60202141
:1030C00080F8411002B0BDE8B04000F043BC00BF42
:1030D000C26B11684B68858D99B2002900F0B480ED
:1030E000A94280F0B180C385D169B1F5807F00F03D
:1030F000A080016851E8031F026821F4807142E852
:103100000313DBB1016851E8031F026821F48071E9
:1031100042E8031393B1016851E8031F026821F4E8
:10312000807142E803134BB1016851E8031F026844
:1031300021F4807142E80313002BDAD1016851E8D1
:10314000051F026821F0010142E80513BBB30168C5
:1031500051E8051F026821F0010142E8051373B32D
:10316000016851E8051F026821F0010142E80513DA
:103170002BB3016851E8051F026821F0010142E804
:103180000513002BDAD11AE0016851E8051F026827
:1031900021F0400142E80513DBB1016851E8051F49
:1031A000026821F0400142E8051393B1016851E83B
:1031B000051F026821F0400142E805134BB1016888
:1031C00051E8051F026821F0400142E80513002B79
:1031D000DAD1202180F8421000210163016851E812
:1031E000031F026821F0100142E80313DBB10168FC
:1031F00051E8031F026821F0100142E8031393B164
:10320000016851E8031F026821F0100142E803132E
:103210004BB1016851E8031F026821F0100142E838
:103220000313002BDAD1C16B04460846FEF7EAFA15
:10323000204602214163818DC28D891A89B202B074
:10324000BDE8B040FFF7C6BE8D427FF4FDAED26947
:10325000B2F5807F7FF4F8AE0222426302B0BDE88F
:10326000B040FFF7B7BE00BF436C43F001034364B7
:10327000530706D5BEF1000F03D0436C43F00203A1
:103280004364930706D5BEF1000F03D0436C43F0AF
:1032900004034364BCF1000F06D55EEA050303D0C6
:1032A000436C43F008034364436C002B3FF4CCAE03
:1032B000920605D525B1044601F006F9216820469D
:1032C0004969426C01F0400102F00802891800F0DF
:1032D000B98000BF016851E8031F026821F49071B2
:1032E00042E80313BBB3016851E8031F026821F4ED
:1032F000907142E8031373B3016851E8031F026839
:1033000021F4907142E803132BB3016851E8031FC5
:10331000026821F4907142E80313002BDAD11AE01D
:10332000016851E8051F026821F0010142E8051318
:10333000DBB1016851E8051F026821F0010142E894
:10334000051393B1016851E8051F026821F00101DE
:1033500042E805134BB1016851E8051F026821F0EE
:10336000010142E80513002BDAD1016B012924D1B8
:10337000016851E8031F026821F0100142E80313BD
:10338000DBB1016851E8031F026821F0100142E837
:10339000031393B1016851E8031F026821F0100183
:1033A00042E803134BB1016851E8031F026821F0A2
:1033B000100142E80313002BDAD1202180F84210DB
:1033C0000021016301684969490640F1C380016831
:1033D00051E8051F026821F0400142E80513DBB106
:1033E000016851E8051F026821F0400142E8051319
:1033F00093B1016851E8051F026821F0400142E8DD
:1034000005134BB1016851E8051F026821F0400126
:1034100042E80513002BDAD1C16B002900F09A8035
:1034200044F2BD42C0F60002044608460A65FEF7B3
:1034300031FA00283FF408AEE06B016D02B0BDE840
:10344000B04008470446FFF7C7FD0020606402B0A3
:10345000B0BD00BF891A00BF026852E8032F03689D
:1034600022F4907243E80325BDB3026852E8032FAB
:10347000036822F4907243E8032575B3026852E8AA
:10348000032F036822F4907243E803252DB30268EA
:1034900052E8032F036822F4907243E80325002DBD
:1034A000DAD11AE0026852E8052F036822F001021F
:1034B00043E80525DDB1026852E8052F036822F0D4
:1034C000010243E8052595B1026852E8052F03681B
:1034D00022F0010243E805254DB1026852E8052FAC
:1034E000036822F0010243E80525002DDAD12022ED
:1034F00080F8422000220263026852E8032F03682A
:1035000022F0100243E80325DDB1026852E8032FE0
:10351000036822F0100243E8032595B1026852E8DF
:10352000032F036822F0100243E803254DB102681F
:1035300052E8032F036822F0100243E80325002D10
:10354000DAD1022289B2426302B0BDE8B040FFF78F
:1035500041BD00BF02B0BDE8B040FFF73DBD00BFB8
:10356000026A32F8023B6FF35F234B60026283E52D
:10357000002804BF0120704710B5044690F84100B0
:1035800028B9002084F84000204600F021F82420CB
:1035900084F841002068C16821F40051C1602046D0
:1035A00001F012F82068016921F49041016141693C
:1035B00021F02A014161C16841F40051C16000203D
:1035C0002021606484F8411084F84210606310BDCB
:1035D0002DE9F04387B00446006844F60001C4F2C8
:1035E000000100268842CDE90566CDE90366029612
:1035F00032D041F20001C4F20101884240F09C80C7
:10360000002043F630010190C4F202014A6942F001
:1036100010024A614A6902F010020192019A019077
:103620000A6842F001020A60096801F00101019193
:1036300001994FF4C06102910221CDE903100320EA
:103640000590072006900020C4F2020002A9FEF7B0
:10365000C7FA252468E000BF43F630000196C4F2A3
:103660000200016946F2280841F4802101610169E4
:10367000C4F2020801F480210191019901960168C8
:1036800041F002010160006802A900F0020001900F
:1036900001984FF4406002900220CDE90306032018
:1036A0000590072006900020C4F2020000F580601B
:1036B000FEF796FA40F26015C2F200054FF48070F2
:1036C0004FF000674FF48069C5E906602846C5E9F8
:1036D0000087C5E90266C5E90496C5E90866FEF7F4
:1036E000CDF9002818BFFEF789F8E563AC6340F216
:1036F000C01508F13000C2F200054021C5E90007FD
:1037000005F10800002280E806022846C5E90522E6
:10371000C5E907226A62FEF7B1F9002818BFFEF773
:103720006DF8A563AC632724204605210022FEF72F
:10373000F3FB2046FEF7DEFB07B0BDE8F083000098
:1037400090F84230202B07D100294FF0010318BF19
:10375000002A05D11846704702231846704700BF5B
:1037600000230363816222218285C285436480F83D
:1037700042100169006819B1C16841F48071C160EB
:10378000416941F001014161C16841F02001C1601E
:1037900018467047006841F20001C4F201018842F6
:1037A00018BF704740F2780140F2D030C2F20001F9
:1037B0000123C2F2000001224B70FFF7C1BF0000DD
:1037C0002DE9F04381B0044690F84100202809D14A
:1037D00000294FF0010018BF002A07D101B0BDE851
:1037E000F08300BF022001B0BDE8F08300206064D8
:1037F00021201D460E4684F841001746FEF7CEFAFA
:10380000A784E784A1688146B1F5805F02D1206971
:1038100000285DD037460020E28C2168002A5DD068
:103820006A1C24D0002D4AD0804600BF08680006DC
:1038300008D4FEF7B3FAA0EB0900A8427AD82168B1
:10384000C868F3E717B117F8010B04E038F8020B6A
:1038500000276FF35F204860E08C0138E084E08C43
:103860000028E3D13AE000BF0A68120609D40A68CA
:10387000120606D40A6812065CBF0A685FEA026292
:10388000F2D51FB117F8012B05E000BF30F8022B6D
:1038900000276FF35F224A60E28C013AE284E28CF7
:1038A000002AE4D11AE000BF30F8022B00276FF3A2
:1038B0005F224A60E28C013AE284E28C72B10A68CB
:1038C000120635D5002FEFD017F8012BF1E700BF16
:1038D00000273046E28C2168002AA1D10868400602
:1038E0001ED42DB3681C14D1086840062AD4086879
:1038F000400627D40868400624D4086840064FF0E4
:103900000000F1D50DE000BF2068C16800684006E6
:1039100018D4FEF743FAA0EB0900A842F4D909E055
:103920000020202184F8411001B0BDE8F08300BFE1
:10393000FEF734FA0320202184F8411001B0BDE8DD
:10394000F08300BF0020202184F8411001B0BDE8C1
:10395000F083000070470000FEE7000080B582B0F1
:103960000020019043F63000C4F2020001680022FA
:1039700041F4001101600068052100F4001001907D
:1039800001980C20FEF7C8FA0C20FEF7B3FA0E20BF
:1039900005210022FEF7C0FA0E2002B0BDE88040EB
:1039A000FEF7A8BA70B5A2B00020CDE9200020A88B
:1039B00000F004FF40F27C06C2F2000630602BA04B
:1039C000C268D0E90110CDE91E022848CDE91C01EA
:1039D0001CA8002100F0DCFE2849706027A0051D0E
:1039E00015913ECD80690DF1580C8CE83E001B907E
:1039F00015A8002100F0EAFE2749B06026A0051DA9
:103A00000E912ECDD0E905400DF13C0C8CE82E0036
:103A1000CDE913400EA8002100F0D8FE2549F06042
:103A200024A0051D07912ECDD0E905400DF1200CF5
:103A30008CE82E00CDE90C4007A8002100F0C6FE5E
:103A40002349306122A0051D00912ECDD0E905400B
:103A50000DF1040C8CE82E00CDE9054068460021EC
:103A600000F0B4FE706122B070BD00BF0100000024
:103A7000040000000000000000000000CB68000807
:103A80004D4200080000000000000000800000001F
:103A90000000000000000000B46800083142000887
:103AA0000300000000000000000100000000000012
:103AB00000000000C06800086D420008000000001F
:103AC00000000000000100000000000000000000F5
:103AD000D768000869420008FEFF000000000000EF
:103AE0000002000000000000000000002DE9F04F7F
:103AF00087B0002543F630000695CDE90455CDE9A1
:103B000002550195C4F20200016840F2004841F0FC
:103B1000100101600168C4F2020801F01001019176
:103B200001990195016808F5805941F0040101608F
:103B30000168012201F004010191019901950168D8
:103B40004FF0010A41F020010160016801F02001FD
:103B5000019101990195016841F0800101600168BE
:103B600001F08001019101990195016841F0010185
:103B70000160016801F0010101910199019501685D
:103B800041F002010160016801F002010191019917
:103B90000195016841F00801016000684FF400716F
:103BA00000F00800019001984846FEF7F1F808F58A
:103BB00080673846302100224FF0300BFEF7E8F8DE
:103BC00040464FF440410022FEF7E2F808F5006657
:103BD00030464FF470610022FEF7DAF8102002A997
:103BE00002AC81E8210408F540602146FDF7F8FFAA
:103BF0004FF40070CDE9020A48462146CDE904554C
:103C0000FDF7EEFF38462146CDE902BACDE904556D
:103C1000FDF7E6FF4FF44040CDE9020A4046214659
:103C2000CDE90455FDF7DCFF4FF47060CDE9020AE1
:103C300030462146CDE90455FDF7D2FF07B0BDE877
:103C4000F08F000010B58CB040F22020002100243D
:103C5000C2F20000C4F20101C0E900140321CDE961
:103C6000031401214FF6FF72CDE90514CDE90914C3
:103C700003A9CDE90044C0E90242C0E904448461DB
:103C8000CDE907440B94FEF771FD002818BFFDF73E
:103C9000B5FD40F22020C2F200006946CDE90044A3
:103CA000FEF780FC002818BFFDF7A8FD0CB010BD82
:103CB00080B58CB040F2B0200021C2F200004FF07D
:103CC0008042C0E9002103224FF0FF33CDE90321F8
:103CD0000122CDE90011C0E9021301618161CDE942
:103CE0000521CDE90711CDE909210B9103A9FEF7C3
:103CF0003DFD002818BFFDF781FD40F2B020C2F263
:103D000000006946FEF74EFC002818BFFDF776FD5F
:103D10000CB080BDF0B591B040F2004540F2F82003
:103D2000C4F200050021C2F2000029226323CDE97C
:103D30000811CDE90611CDE90411C0E90052C0E92E
:103D4000021301618161FFF75DF8002818BFFDF7DC
:103D500055FD40F2F820C2F2000008A9FEF722FC4F
:103D6000002818BFFDF74AFD602001900020CDE932
:103D70000200059040F2F820C2F2000001A90022E2
:103D8000FEF730FF002818BFFDF738FD40F2F8209D
:103D9000C2F2000001A90422FEF724FF002818BF88
:103DA000FDF72CFD40F2F820C2F2000001A9082224
:103DB000FEF718FF002818BFFDF720FD40F2F82499
:103DC000C2F2000401A920460C22FEF70BFF0028D6
:103DD00018BFFDF713FD20680026A8421096CDE914
:103DE0000E660D960C9601D011B0F0BD43F6300072
:103DF0000B96C4F2020001680CAC41F001010160B5
:103E00000168022701F001010B910B990B960168E3
:103E100041F0020101600068214600F002000B90B1
:103E20000B98C0200C9005F5FE30CDE90D76CDE95C
:103E30000F67FDF7D5FE0320CDE90C0705F500302F
:103E40002146CDE90E661097FDF7CAFE11B0F0BD10
:103E500080B58CB040F2403040F600020021C2F242
:103E60000000C4F20002C0E9002103224FF6FF73F4
:103E7000CDE903210122CDE90011C0E9021301615E
:103E80008161CDE90521CDE90711CDE909210B912A
:103E900003A9FEF76BFC002818BFFDF7AFFC40F24A
:103EA0004030C2F200006946FEF77CFB002818BFD4
:103EB000FDF7A4FC0CB080BD80B58CB040F288301A
:103EC00040F600420021C2F20000C4F20002C0E944
:103ED000002103224FF0FF33CDE903210122CDE978
:103EE0000011C0E9021301618161CDE90521CDE92D
:103EF0000711CDE909210B9103A9FEF737FC002832
:103F000018BFFDF77BFC40F28830C2F20000694622
:103F1000FEF748FB002818BFFDF770FC0CB080BD11
:103F200080B540F2D03041F20001C2F20000C4F28C
:103F3000010100234FF00C0C4FF4E13280E80E0039
:103F4000C0E90333C0E905C3C361FFF711FB0028D3
:103F500008BF80BDBDE88040FDF750BC80B540F291
:103F6000184044F60001C2F20000C4F20001002330
:103F70004FF00C0C4FF4E13280E80E00C0E903333F
:103F8000C0E905C3C361FFF7F3FA002808BF80BD8D
:103F9000BDE88040FDF732BCFEE7000010B540F2FE
:103FA000F824C2F2000420460021FEF77FFF2046DD
:103FB0000421FEF77BFF20460821FEF777FF20460D
:103FC0000C21FEF773FF40F22020C2F200003C21DA
:103FD000FEF7FEFC40F2B020C2F200003C21FEF7EA
:103FE000F7FC40F24030C2F200003C21FEF7F0FC4A
:103FF00040F28830C2F200003C21BDE81040FEF7DC
:10400000E7BC000064290B46A8BF642313F1640FCA
:10401000D8BF6FF06303032888BF70472DE9F043D2
:1040200081B040F6004CC4F2020CACF500654FF0D4
:10403000000901264FF400444FF480424FF000087D
:10404000DFE800F018020A12ACF580654FF00109B4
:104050000026202410220DE04FF0010800264FF426
:1040600000744FF4807204E000264FF400644FF4B3
:104070008062654600291FB22846114612D40122EB
:10408000FDF786FE284621460022FDF781FE40F21C
:10409000F820C2F200000068D6B1476301B0BDE865
:1040A000F04370470022FDF773FE284621460122A7
:1040B000FDF76EFE40F2F820C2F200000068C7F182
:1040C00000016EB1416301B0BDE8F043704700BF2D
:1040D000B9F1000F0CD0876301B0BDE8F043704721
:1040E000B9F1000F0ED0816301B0BDE8F043704715
:1040F000B8F1000F0CBF0764C76301B0BDE8F0431F
:10410000704700BFB8F1000F0CBF0164C16301B07C
:10411000BDE8F04370470000FEE70000000000002B
:10412000EFF30980BFF36F8F154B1A681EF0100F65
:1041300008BF20ED108A20E9F04F10602DE909003A
:104140004FF0500080F31188BFF34F8FBFF36F8F94
:1041500001F0FEF84FF0000080F31188BDE809007F
:1041600019680868B0E8F04F1EF0100F08BFB0ECF7
:10417000108A80F30988BFF36F8F704700BF00BFBC
:10418000940000200000000000000000000000007B
:10419000074B19680868B0E8F04F80F30988BFF34F
:1041A0006F8F4FF0000080F31188704700BF00BF91
:1041B0009400002040F2D03040F27801C2F20000BA
:1041C000C2F200010122FFF7BBBA000083B010B5B4
:1041D0009BB084461DA802AC0EC01DAA20466146B5
:1041E0000192FCF725F9002081B2615C89B140F0B1
:1041F00001018AB2A25C5AB140F002018AB2A25C0B
:1042000032B140F003018AB2A25C0430002AEBD143
:10421000084682B240F2D030C2F2000002A94FF448
:104220007A73FFF7CDFA1BB0BDE8104003B07047BA
:1042300082B001F0F9FC01AC019000BF20460A21D8
:1042400000F07AFFFDF71AFAF8E7000041F20044A7
:10425000C4F2020420464FF40071FDF791FD4FF4C3
:10426000FA7000F087FAF5E7FEE700004FF47A7085
:1042700000F080FAFAE7000080B54FF0500080F3BC
:104280001188BFF36F8FBFF34F8F01F0D3FC30B1B4
:104290004EF60450CEF200004FF080510160002035
:1042A00080F3118880BD000070B592B006AC204646
:1042B0003021FCF71CF9002543F640000595CDE9B7
:1042C0000355CDE901550095C4F2020001680226AC
:1042D00041F080510160006800F08050009000982B
:1042E00047F200000095C4F20000016841F48041EB
:1042F0000160006800F48040009000980120069062
:104300004FF4803007904FF480000D9008200E90FD
:104310004FF4A870CDE90F060420119020460C96AA
:10432000FDF766FF10B172B6FEE700BF0F20CDE9C2
:1043300001064FF4A05004904FF48050059001A85E
:1043400005210395FDF724FE10B172B6FEE700BF0C
:1043500012B070BD4EF68850CEF20000016841F4F4
:10436000700101607047000040F2F820C2F20000C6
:10437000FEF78EBB40F26820C2F20000FEF788BB59
:10438000B0B540F6FF3E0568C4F2000E40F2004CA6
:104390007045C4F2010C25DCB0F1804F2FD040F203
:1043A0000043C4F20003984229D040F60003C4F24F
:1043B0000003984223D041F6FF73C4F200039842F1
:1043C00028DC70453ADCB0F1804F5BD040F200430E
:1043D000C4F20003984255D040F60003C4F2000333
:1043E0004EE000BF40F60043C4F20003984206D0FE
:1043F000604504D00023C4F201039842DBD14B682E
:1044000025F0700243EA020541F6FF73C4F200038F
:104410009842D6DD43F6FF73C4F2010398421FDCD5
:1044200042F20003C4F2000398422BD00023C4F2EE
:104430000103984226D0604524D028E040F600438E
:10444000C4F2000398421DD041F60003C4F20003F9
:10445000984217D041F60043C4F2000310E000BFB9
:1044600044F20003C4F2010398420BD044F6000367
:10447000C4F20103984205D044F20043C4F20103A0
:10448000984204D1CB6825F4407243EA02050A68D9
:104490008C684B69C46240F480648262644504BFE6
:1044A00009690163026825F0800142F004021943A2
:1044B0000260012242610160B0BD0000806B0021FA
:1044C000C185FEF789BD000081B090F84210222915
:1044D00021D183680246B3F5805F09D152F8281FC5
:1044E00052F8183C002B63D003685B680AE000BFF9
:1044F00052F8281F13B90369002BF5D003685B68D5
:1045000003F07F030B70116801311160C18D013917
:104510000A04C18502D001B0704700BF0168CA68B3
:1045200022F02002CA60CA6822F48072CA604A6916
:1045300022F001024A61202180F8421000214163EB
:10454000026B012A3CD10163016851E8031F026834
:1045500021F0100142E80313DBB1016851E8031FA9
:10456000026821F0100142E8031393B1016851E899
:10457000031F026821F0100142E803134BB10168E8
:1045800051E8031F026821F0100142E80313002BD9
:10459000DAD101680A68D20606D5002200920A68BC
:1045A0000092496800910099818D01B0FEF712BD1B
:1045B000026852686FF35F2221F8022B8162A5E73F
:1045C00001B0FFF7E7B80000B0B50446006804F199
:1045D00008030ECB0569194325F440552A430261AF
:1045E0006269E3691143C268194349F20C639A4353
:1045F0001143C1604169A26921F4407141F2004355
:10460000114340F48062C4F201039A42416103D134
:10461000FDF7A4FD02E000BFFDF78CFDE1694FF658
:104620009C7563681922C0F6FF75B1F5004FA0FBB9
:1046300002011FD15A00DB0FFBF782FE48F21F5127
:10464000C5F2EB11A0FB01235A0905F1805302FBCF
:104650000300322303EBC000A0FB01014FF4F8700C
:1046600000EA111000EB0210C1F342110844216866
:104670008860B0BD9A009B0FFBF762FE48F21F51A5
:10468000C5F2EB11A0FB01235A0902FB05003223FE
:1046900003EB0010A0FB0101F02000EA511000EB39
:1046A0000210C1F34311084421688860B0BD0000C6
:1046B00040F2D030C2F20000FEF790BC40F2184049
:1046C000C2F2000000680168C90608D581B0002167
:1046D00000910168009140680090009801B040F29C
:1046E0001840C2F20000FEF779BC0000FEE70000AF
:1046F000FDF768FBFFF7D8FDFFF7F8F9FFF72EF994
:10470000FFF72CFCFFF7D4FAFFF704FBFFF708FCD8
:10471000FFF79EFBFFF796FAFFF7CEFBFFF74AFD88
:10472000FFF73CFCFDF74AF8FCF7A6FF04A0FFF7F3
:104730004DFDFFF737F900F025F800BFFEE700BF99
:1047400053797374656D20496E697469616C697A17
:1047500065642E205374617274696E672052544FE1
:1047600053205363686564756C65722E2E2E0D0A96
:104770000000000080B5012898BF012000F08CFCEB
:10478000002080BD80B500F075FD002080BD0000D8
:1047900082686AB1C3685BB180B582B0D0E90001BC
:1047A0004FF0000CCDF800C000F0A8FF02B080BDB3
:1047B000D0E90001002200F061BF00004168012043
:1047C000002908BF00F0D6BE00F00ABFB0B584B023
:1047D00043698E4693B1846984B10589D0E9001C90
:1047E000026928B2843D18BFC51CCDE9005360465C
:1047F0007346029401F0CCF904B0B0BD0589D0E94C
:104800000013028A28B2843D18BFC51C03AC1846A9
:104810007346CDE9005401F08BF90399012818BFC4
:104820000021084604B0B0BDF0B581B040F2940458
:10483000C2F200040E46E76921680546081D00F033
:10484000EFFA18B1681C0CD016E000BF20680121F7
:10485000C06A626801FA00F022EA00006060681C29
:104860000AD14EB154F8500B011D204601B0BDE8ED
:10487000F04000F039BB00BF2068ED19456007D358
:10488000606B2168043101B0BDE8F04000F0FABA75
:10489000206B2168043100F0F5FA606A854238BF68
:1048A000656201B0F0BD00002DE9F041044600F062
:1048B00033FB40F29406C2F20006306940F26045D4
:1048C000013030613068C2F2000548B170690028DB
:1048D00040D13068E16AC06A884298BF346039E0EC
:1048E00034603069012835D1284600F0BBFA05F163
:1048F000140000F0B7FA05F1280000F0B3FA05F152
:104900003C0000F0AFFA05F1500000F0ABFA05F101
:10491000640000F0A7FA05F1780000F0A3FA40F275
:104920003418C2F20008404600F09CFA08F114075F
:10493000384600F097FA06F1640000F093FA06F1A9
:104940003C0000F08FFA06F1500000F08BFAC6F838
:10495000308077637068B16801220131B160E16A2B
:104960008A401043706001EB810005EB8000211D3F
:1049700000F0BAFA00F0F4FA706988B13068E16AC0
:10498000C06A884228BFBDE8F0814EF60450CEF2DE
:1049900000004FF080510160BFF34F8FBFF36F8F66
:1049A000BDE8F08140F2940540F260464EF60458AE
:1049B000C2F20005C2F20006CEF200084FF08057A6
:1049C00003E000BF204600F0E3FAE868D0B100F051
:1049D000A3FAA86CC468201D00F022FA28690138E7
:1049E0002861E8680138E86000F0BAFA94F85100EC
:1049F0000228EAD00128E5D070B9206B00F0C8FA8F
:104A0000E0E700BF30680228DFD3C8F80070BFF3CA
:104A10004F8FBFF36F8FD8E74FF0500080F31188AE
:104A2000BFF36F8FBFF34F8FFEE700002DE9F04714
:104A30000A9C8246206B16460F46DDE90859910014
:104A4000A5229846FBF74BFD206B002F00EB86005C
:104A5000A0F1040020F0070644D0387884F8340030
:104A6000D8B3787884F83500B8B3B87884F83600CD
:104A700098B3F87884F8370078B3387984F8380038
:104A800058B3787984F8390038B3B87984F83A00A3
:104A900018B3F87984F83B00F8B1387A84F83C0010
:104AA000D8B1787A84F83D00B8B1B87A84F83E007D
:104AB00098B1F87A84F83F0078B1387B84F84000E8
:104AC00058B1787B84F8410038B1B87B84F8420053
:104AD00000281CBFF87B84F84300002084F84300C2
:104AE00003E000BF002084F834000027201D062DBD
:104AF00028BF0625E562C4E9115700F0BFF904F1AB
:104B0000180000F0BBF985F00700A061304651465F
:104B1000424624616462E76484F8507000F06EF9E4
:104B2000B9F1000F206018BFC9F80040BDE8F08758
:104B300008480068006880F308884FF0000080F3A0
:104B4000148862B661B6BFF34F8FBFF36F8F00DF7B
:104B500000BF000008ED00E081B00020009040F2AE
:104B60001000C2F2000000684FF0500181F311887C
:104B7000BFF36F8FBFF34F8F013007D0FEE700BF49
:104B8000009830B9009820B9009810B90098002812
:104B9000F6D001B070470000F0B581B0044600F0D7
:104BA000BBF994F94560012E0FDB04F1240500BF29
:104BB000286850B1284601F019F9002818BF00F004
:104BC00035FBF0B2013E0128F2D8FF2684F845609B
:104BD00000F0C6F900F0A0F994F94470012F0EDB43
:104BE00004F11005286850B1284601F0FFF80028AC
:104BF00018BF00F01BFBF8B2013F0128F2D884F87F
:104C0000446001B0BDE8F04000F0AAB970B50446B8
:104C100000F096FB40F20C1CC2F2000CDCF8042001
:104C200052B19CF80000002818BF4FF000404FF030
:104C3000000544BB81E000BF40F2EC40C2F200003E
:104C4000420700F5803200F1070122F0070218BF89
:104C500021F007000021A2F10803CCE90601CCF8FD
:104C6000043042E90211DCF80420191AC0E90021DD
:104C700001208CF800004FF00040CCE90211002C1C
:104C80004FF0000559D0204057D124F0070000F123
:104C90001003600708BF04F10803DCF80800591E80
:104CA00081424AD2604650F818EFDEF804509D4227
:104CB0002BD2DEF80010B9B174464D689D4217D270
:104CC0000E68AEB175689D4216D23068A0B14568D5
:104CD0009D4215D204689CB165689D4214D221683A
:104CE000A6460029E9D110E00CF118000DE000BF44
:104CF0008E46204609E000BFB646084605E000BFE4
:104D00008646304601E000BFA646964514D00268AC
:104D1000DEF80040E91A112904604DD30EEB0305BB
:104D2000680719D04FF0500080F31188BFF36F8FE0
:104D3000BFF34F8FFEE700BF002501F091F8680731
:104D40005AD04FF0500080F31188BFF36F8FBFF33C
:104D50004F8F00BFFEE700BF0CF118006960CEF86E
:104D6000043000BF0168A9420AD20868A8420BD2E9
:104D70000168A94204D208680B46A842F2D304E0B5
:104D80000346084601E000BF0B465C6869681E19CF
:104D9000AE4202D121441D4659606C18844207D1AD
:104DA000DCF80440A04203D0D0E90004214469604B
:104DB000AB42286018BF1D60DEF80400DCE9021376
:104DC00002F10805091A9942CCF8081038BFCCF84E
:104DD0000C109CF8001000294FF0000118BF40F0A3
:104DE0000040CEE90010DCF810000130CCF81000D3
:104DF00001F036F86807A4D1284670BD034644F692
:104E0000593021F00101C0F600004FF0807C03E929
:104E100003106FF00201A3F1440043E90912704747
:104E20000169D0E90132D1F804C09A608445536029
:104E300008BF4A60002202610868013808600868FB
:104E40007047000040F2F063C2F20103036040F2D9
:104E5000F040C2F20100086080201060704700003E
:104E6000704700004FF0FF31024642F8081F002152
:104E70004260C0E903220160704700000021016127
:104E80007047000010B5D1F800C01CF1010213D02A
:104E900000F1080462681368634511D853681C6800
:104EA000644511D85A68146864450FD8546823685B
:104EB000A6466345EED90BE00269D2F804E007E0AC
:104EC0009646224604E000BF9E4601E096461A46FA
:104ED000C1F804E0CEF808108A60516008610168EA
:104EE0000131016010BD0000D0F800C043680861C6
:104EF0009A68C1E90132516099600CF101010160C9
:104F000070470000DFF80C00016841F47001016097
:104F10007047000088ED00E04FF0500080F31188EA
:104F2000BFF36F8FBFF34F8F40F21000C2F200004B
:104F300001684A1C026009B1704700BF4EF6045078
:104F4000CEF200000068000608BF70474FF0500026
:104F500080F31188BFF36F8FBFF34F8FFEE7000020
:104F600040F21000C2F20000016839B1013901605D
:104F700018BF7047002080F3118870474FF0500031
:104F800080F31188BFF36F8FBFF34F8FFEE70000F0
:104F900070B5002808BF70BD40F20C14C2F20004C6
:104FA000217850F8042C002918BF4FF0004111421D
:104FB0000ED0A0F108052B68A3B14FF0500080F38C
:104FC0001188BFF36F8FBFF34F8F00BFFEE700BFA5
:104FD0004FF0500080F31188BFF36F8FBFF34F8FF6
:104FE000FEE700BF22EA010140F8041C064600F07B
:104FF000A7F956F8041CA0680844A06004F1180042
:105000000368AB420AD21868A84225D20368AB42B3
:1050100004D218681A46A842F2D301E002461846A4
:105020005368D618AE4202D11944154651606B1828
:10503000834206D16368984203D0D0E90003194443
:105040006960AA42286018BF15606069013060611C
:10505000BDE8704000F004BF1A465368D618AE424F
:10506000E5D1E1E74EF21000CEF200000021016030
:10507000816040F20801C2F20001096844F6D3528F
:10508000C1F26202A1FB02124FF0FF3101EB92115B
:10509000416007210160704770B500283FD040F2A1
:1050A0009404C2F20004A16951B14FF0500080F3A2
:1050B0001188BFF36F8FBFF34F8F00BFFEE700BFB4
:1050C0000546A0690130A061E66920680430FFF759
:1050D000A7FE48B12068AD19456012D3606B216806
:1050E0000431FFF7CFFE15E020680121C06A626835
:1050F00001FA00F022EA000060602068AD19456006
:10510000ECD2206B21680431FFF7BCFE606A854257
:1051100038BF656200F0A4FE002818BF70BD4EF6CF
:105120000450CEF200004FF080510160BFF34F8F6A
:10513000BFF36F8F70BD000070B588B1D1B140F280
:105140009404C2F20004A269F2B14FF0500080F35F
:105150001188BFF36F8FBFF34F8F00BFFEE700BF13
:105160004FF0500080F31188BFF36F8FBFF34F8F64
:10517000FEE700BF4FF0500080F31188BFF36F8F40
:10518000BFF34F8FFEE700BFA2690132A261E2695F
:1051900003689A42194403D2994203D320E000BF26
:1051A000994201D391421BD90160E56920688E1AAA
:1051B0000430FFF735FE40B920680121C06A6268FB
:1051C00001FA00F022EA000060602068AD19456035
:1051D00008D3606B21680431FFF754FE0BE000BF79
:1051E000016008E0206B21680431FFF74BFE606A24
:1051F000854238BF656200F033FE002818BF70BDDD
:105200004EF60450CEF200004FF080510160BFF323
:105210004F8FBFF36F8F70BD40F29401C2F2000157
:105220008A6B0260C96941607047000040F29400D7
:10523000C2F20000012181627047000080B110B508
:105240000C4640F29401C2F2000109681831FFF7E0
:1052500019FE20460121BDE81040FFF7E5BA00BF66
:105260004FF0500080F31188BFF36F8FBFF34F8F63
:10527000FEE70000B0B588B00020CDE9050006A823
:1052800005A904AAFFF7DEFD0598B8B3069C002C1B
:105290003ED05421049A07910799542942D1079985
:1052A0002063022084F8510007A80025CDE90050B2
:1052B00044F6A510C0F600001FA100230294FFF7DA
:1052C000B5FB2046FFF7F0FA079940F29400C2F2CE
:1052D0000000016279B14FF0500181F31188BFF3F2
:1052E0006F8FBFF34F8F4FF0FF314162012141615A
:1052F000C56100F07BF808B0B0BD00BF4FF05000B2
:1053000080F31188BFF36F8FBFF34F8FFEE700BFAD
:105310004FF0500080F31188BFF36F8FBFF34F8FB2
:10532000FEE700BF4FF0500080F31188BFF36F8F8E
:10533000BFF34F8FFEE700BF49444C45000000001B
:1053400040F29400C2F2000081690131816170472E
:1053500010B540F29404C2F20004A06910B101201B
:10536000A06210BD0020A0622068006B0168B1F14E
:10537000A53F0BD14168B1F1A53F07D18168B1F1DB
:10538000A53F03D1C068B0F1A53F04D020682168D3
:105390003431FFF765FD6068B0FA80F0C0B2C0F14B
:1053A0001F0040F2604100EB8000C2F2000151F8A2
:1053B00020205AB101EB8001486801F108024068E1
:1053C000904248600CD0C068206010BD4FF0500083
:1053D00080F31188BFF36F8FBFF34F8FFEE700BFDD
:1053E00040684860C068206010BD0000B0B584B05F
:1053F0004EF2004CCEF2000C4CF27021C4F20F11B0
:10540000DCF800294B1C9A420AD14FF0500080F37F
:105410001188BFF36F8FBFF34F8F00BFFEE700BF50
:10542000DCF800298A4209D14FF0500080F311883E
:10543000BFF36F8FBFF34F8FFEE700BF9CF80010E4
:105440000291FF218CF800109CF800108DF80710D5
:105450009DF8071001F0500240F22C11C2F2000139
:105460000A7007224A609DF90720B2F1FF3F6BDC0A
:10547000032200BFD31C4B609DF8070040008DF84D
:1054800007009DF90700B0F1FF3F24DC931C4B603F
:105490009DF8070040008DF807009DF90700B0F166
:1054A000FF3F18DC531C4B609DF8070040008DF84F
:1054B00007009DF90700B0F1FF3F0CDC4A609DF842
:1054C0000700043A40008DF807009DF90700B0F18D
:1054D000FF3FCFDD131D032B36D14FF440704860E2
:1054E00002988CF80000DCF8200940F47000CCF839
:1054F0002009DCF8200940F07040CCF82009FFF7C3
:10550000B1FD40F21004C2F2000400252560FFF74F
:10551000F9FC4EF63470CEF20000016841F04041D3
:105520000160FFF705FBFFF713FF039520684FF0BD
:10553000500181F31188BFF36F8FBFF34F8F01309C
:1055400012D000BFFEE700BF4FF0500080F311887B
:10555000BFF36F8FBFF34F8FFEE700BF039830B9E3
:10556000039820B9039810B903980028F6D00020BA
:1055700004B0B0BDB0B54820FFF748FB044660B3A7
:105580000025012084F846502460C4E90F05FFF788
:10559000C3FC2068D4E90F12A56302FB01030139A3
:1055A00001FB0201C4E90103FF20E16084F844002B
:1055B00084F8450004F11000FFF754FC04F12400C6
:1055C000FFF750FCFFF7CCFC20460021002200230F
:1055D0002560C4E9025500F0FDF82046B0BD00008A
:1055E000B0B582B0B1B348200190019848283BD1B2
:1055F00001980120002581F846000960C1E90F05E6
:105600000C46FFF789FC2068D4E90F12A56302FB62
:105610000103013901FB0201C4E90103FF20E1603C
:1056200084F8440084F8450004F11000FFF71AFCE8
:1056300004F12400FFF716FCFFF792FC204600213E
:10564000002200232560C4E9025500F0C3F820467B
:1056500002B0B0BD4FF0500080F31188BFF36F8FE0
:10566000BFF34F8FFEE700BF4FF0500080F311886B
:10567000BFF36F8FBFF34F8FFEE70000A0B3F0B50D
:1056800081B00546484348300E46FFF7BFFA04464E
:1056900030B30027204684F84670002E18BF4830EB
:1056A0002060C4E90F56FFF737FC2068D4E90F12D9
:1056B000A76302FB0103013901FB0201C4E90103F5
:1056C000FF20E16084F8440084F8450004F11000F4
:1056D000FFF7C8FB04F12400FFF7C4FBFFF740FC11
:1056E000204601B0F0BD00BF4FF0500080F311889C
:1056F000BFF36F8FBFF34F8FFEE7000010B582B08E
:1057000060B1ABB1F1B9EAB14FF0500080F311884C
:10571000BFF36F8FBFF34F8FFEE700BF4FF0500016
:1057200080F31188BFF36F8FBFF34F8FFEE700BF89
:105730004FF0500080F31188BFF36F8FBFF34F8F8E
:10574000FEE700BF51B14AB94FF0500080F3118815
:10575000BFF36F8FBFF34F8FFEE700BF4824019464
:10576000019C482C2CD1019C012483F8464000293F
:1057700008BF1A461A60C3E90F011C46FFF7CCFBAD
:105780002068D4E90F12002302FB010C013901FB50
:105790000201A363C4E9010CFF20E16084F8440026
:1057A00084F8450004F11000FFF75CFB04F12400CD
:1057B000FFF758FBFFF7D4FB204602B010BD00BF37
:1057C0004FF0500080F31188BFF36F8FBFF34F8FFE
:1057D000FEE700002DE9F04F83B00292C0B11D46F4
:1057E0000446F9B1022D02D1E06B01285CD11646C6
:1057F0000F4600F009FA18BB16B34FF0500080F3C3
:105800001188BFF36F8FBFF34F8F00BFFEE700BF5C
:105810004FF0500080F31188BFF36F8FBFF34F8FAD
:10582000FEE700BF206C0028DCD04FF0500080F372
:105830001188BFF36F8FBFF34F8F00BFFEE700BF2C
:10584000FFF76AFBA06B022D65D0E16B884262D343
:105850000298002800F018816846FFF7DDFCFFF78A
:105860007FFBFFF76DFDFFF757FB94F84400FF281F
:1058700004BF002084F8440094F84500FF2804BFCA
:10588000002084F84500FFF76BFB684602A900F092
:1058900001F998B12046FFF77FF900F0E1FA002006
:1058A00003B0BDE8F08F00BF4FF0500080F31188C7
:1058B000BFF36F8FBFF34F8FFEE700BF04F11008F7
:1058C000FFF72AFBD4F83890E66BFFF749FBB145A8
:1058D00016D102994046FFF7B1FC2046FFF75CF96C
:1058E00000F0BEFA88B94EF60450CEF200004FF038
:1058F00080510160BFF34F8FBFF36F8F05E000BF92
:105900002046FFF749F900F0ABFAFFF705FBA06B63
:10591000E16B884266D2A66B226CDAB139462DB3B0
:10592000E068FAF797FDE168206C2268091A914255
:10593000E16003D2A16840420844E060A81EB0FACA
:1059400080F040093146002E18BF01210840361A68
:1059500018E000BF2068A8B9A06800F0EFF90021A6
:10596000B0FA80F0A16040090DE000BF6068FAF76E
:1059700071FDD4E90101226C10448842606001D3BA
:10598000206860600120711CA16354F8241FA9B134
:10599000204600F02BFA50B14EF60450CEF2000033
:1059A0004FF080510160BFF34F8FBFF36F8FFFF750
:1059B000D7FA012003B0BDE8F08F00BF0028F6D170
:1059C0004EF60450CEF200004FF080510160BFF35C
:1059D0004F8FBFF36F8FFFF7C3FA012003B0BDE80D
:1059E000F08F00BFE94602AE0CE000BF2046FFF793
:1059F000D3F800F035FAFFF78FFAA06BE16B88421D
:105A0000FFF489AF029800283ED0FFF7A9FAFFF70C
:105A100097FCFFF781FA94F84400FF2804BF0020A8
:105A200084F8440094F84500FF2804BF002084F85F
:105A30004500FFF795FA4846314600F02BF800285C
:105A40007FF428AFFFF768FAD4F838A0D4F83CB058
:105A5000FFF786FADA45C9D102994046FFF7EEFB17
:105A60002046FFF799F800F0FBF90028C3D14EF665
:105A70000450CEF200004FF080510160BFF34F8F11
:105A8000BFF36F8FB7E700BFFFF76AFA002003B0DC
:105A9000BDE8F08FB0B548B30C4689B30546FFF7B3
:105AA0003BFA40F2940CC2F2000CDCF81C30226885
:105AB000501C2FD0AE46D5E90050DCF83810A94272
:105AC00001D083422ED2181A824229D9101A20609E
:105AD000DCF838000024CEF80000DCF81C00CEF81A
