:020000040800F2
:10000000081E012001030008494900085D4100085D
:10001000B14700080D1C00088D50000800000000CA
:10002000000000000000000000000000114B00086C
:10003000911F000800000000314A00083D4C0008F4
:100040001B0300081B0300081B0300081B03000818
:100050001B0300081B0300081B0300081B03000808
:100060001B0300081B0300081B0300081B030008F8
:10007000791F00081B030008851F00081B030008E8
:100080001B0300081B0300081B0300081B030008D8
:100090001B0300081B0300081B0300081B030008C8
:1000A0001B0300081B0300081B0300081B030008B8
:1000B0001B0300082D4D00081B0300081B0300084C
:1000C0001B0300081B0300081B0300081B03000898
:1000D0001B030008755000081B030008815000082E
:1000E0001B0300081B0300081B0300081B03000878
:1000F0001B030008394D00081B0300081B03000800
:100100001B0300081B0300081B0300081B03000857
:100110001B0300081B0300081B0300081B03000847
:100120001B0300081B0300081B0300081B03000837
:100130001B0300081B0300081B0300081B03000827
:100140001B0300081B0300081B0300081B03000817
:100150001B0300081B0300081B0300081B03000807
:100160001B0300081B0300081B0300081B030008F7
:100170001B0300081B0300081B030008000000000D
:100180001B0300081B03000800F002F800F0A8F8A9
:1001900014A696E8000CB244B344DA4501D100F04D
:1001A0009FF8BAE80F000FA696E83000A5EB04050B
:1001B00004EB0607AAEB0704A7F101074FEA1515A0
:1001C0004FEA3414A4F10104AC4201D300F088F8E2
:1001D00013F0010F18BFFB1A43F0010300F001F800
:1001E000DBE71847247E0000447E0000103A24BF5D
:1001F00078C878C1FAD8520724BF30C830C144BF8C
:1002000004680C6070470000704700000023002461
:1002100000250026103A28BF78C1FBD8520728BF16
:1002200030C148BF0B6070476E2900F0ED82702925
:1002300000F02F84662907F03A86652907F0378693
:10024000672907F03486612907F0338603681B0AA3
:1002500028BF41F08001692900F09A82642900F0EA
:100260009782752900F094826F2900F0BD83782968
:1002700000F0FB83E92900F05783E42900F0548360
:10028000F52900F05183EF2900F0BA83F82900F036
:10029000FA830368DB0928BF41F08001632901F07C
:1002A0007B81732901F08081E32901F08B81F3299F
:1002B00001F09081002070471FB507F0EBFD01F0C1
:1002C00099FB04000020002107F0CEFD401C606077
:1002D0000020002107F0B2FDE0601FBD10B510BD89
:1002E00001F05AFB1146FFF7E7FF04F065FF01F04C
:1002F00037FC03B4FFF7F2FF03BC01F07FFC000002
:100300000948804709480047FEE7FEE7FEE7FEE7A9
:10031000FEE7FEE7FEE7FEE7FEE7FEE704480549E5
:10032000054A064B70470000194D00088901000876
:10033000080A0120081E0120080E0120080E0120D5
:1003400053EA020C00F069802DE9F04B4FF00006F3
:10035000002B1FBFB3FA83F503FA05F424FA05F660
:100360005E4012BF1643B2FA82F502FA05F4C5F1F7
:1003700020051EBF22FA05FC44EA0C04203556EA8B
:10038000044C4FEA144418BF641C4FF000084FF0AF
:100390000009904271EB030C39D3002919BFB1FA5F
:1003A00081F701FA07F6B0FA80F700FA07F6C7F10D
:1003B00020071EBF20FA07FC46EA0C062037B6FBD2
:1003C000F4FCA7EB0507103F07F01F0BCBF120064D
:1003D0002CFA06F60CFA0BFB44BFB3460026202F7E
:1003E000A4BF5E464FF0000B5BEA060C08BF4FF05F
:1003F000010B19EB0B0948EB0608ABFB027C06FB73
:1004000002CC0BFB03CCC01B71EB0C01C1E70B460C
:10041000024641464846BDE8F08B13B5084318BF75
:100420004FF0FF300146AFF30080BDE81C4070473D
:100430001CB50C46064B7B4469460090204600F0F4
:10044000FCF904460020694600F00AFA20461CBD6B
:10045000270400000FB400B58DB010A909900091D9
:100460000B904FF0FF300A9000200C900648784423
:100470000690064878446A4607900F9909A800F04C
:10048000EBFB0DB05DF814FB070800001F0800002F
:100490002DE9FF5F1D464FF0FF3B91464FF00008EE
:1004A0005F46D5E90146A96901987F1C8847296AFA
:1004B000824688470028F6D1BAF1FF3F0CD0002EC3
:1004C00024F4C06419DD600614D5BAF12B0F09D0ED
:1004D000BAF12D0F0ED103E0584604B0BDE8F09FED
:1004E00044F48064A96901987F1C8847761E82467F
:1004F000002E02DDBAF1300F03D0B9F1000F26D083
:1005000032E0A969761E01987F1C44F40074884784
:10051000002E824605DDBAF1780F06D0BAF1580FE9
:1005200003D0B9F1000F10D01EE0B9F1000F02D0D6
:10053000B9F1100F18D1A969761E01987F1C24F417
:10054000007488478246102002E0082000E00A205C
:10055000814609E0A96908FB0908761E01987F1CFD
:1005600044F4007488478246002E05DD4946504613
:1005700000F05EFB0028EDDAE96901988847A005E4
:1005800002D46FF00100A8E7E00725D1600613D57B
:10059000600502D5C8F1000000E0404629680A1D48
:1005A0002A600968220501D5087015E0220701D5E7
:1005B000088011E008600FE02868011D29600068CC
:1005C000210502D580F8008006E0210702D5A0F8B9
:1005D000008001E0C0F8008038467EE7032A40F240
:1005E000308010F0030C00F0158011F8013BBCF1D5
:1005F000020F624498BF11F801CB00F8013B38BFED
:1006000011F8013BA2F1040298BF00F801CB38BFFA
:1006100000F8013B11F0030300F04E83083AC0F0EC
:10062000088051F8043B083A51F804CBA0E80810C0
:10063000F5E7121D5CBF51F8043B40F8043BAFF3F3
:100640000080D20724BF11F8013B11F801CB48BF4D
:1006500011F8012B24BF00F8013B00F801CB48BF83
:1006600000F8012B704702F0FF0343EA032242EA3D
:10067000024200F002B84FF0000200B51346944663
:100680009646203922BFA0E80C50A0E80C50B1F1EA
:100690002001BFF4F7AF090728BFA0E80C5048BFFE
:1006A0000CC05DF804EB890028BF40F8042B08BF9C
:1006B000704748BF20F8022B11F0804F18BF00F898
:1006C000012B704770477047704770B504468569C5
:1006D0000068C10601D5302600E02026C00707D0FB
:1006E00070BDD4E9012130469047206A401C206249
:1006F0006D1EF6D570BD70B5044685690078C007DB
:1007000007D170BDD4E9012120209047206A401C08
:1007100020626D1EF6D570BD09684A0501D540B24C
:100720007047C905FCD500B2704709684A0501D574
:10073000C0B27047C905FCD580B2704770B50C4691
:100740000546012A05D02878800600D5EA690023ED
:1007500002E0012305E05B1C934202D2E05C00282A
:10076000F9D1A869E618C01AA861286A1844286255
:100770002846FFF7AAFF04E0D5E9012114F8010B90
:100780009047B442F8D32846FFF7B5FF70BD00008C
:100790002DE9F0410646002410687529314616A55A
:1007A00010D0FFF7B9FF002802DA404213A507E096
:1007B00031688A0701D512A502E0490704D511A5C1
:1007C000012401E0FFF7B1FF00210A2206F124070E
:1007D00009E0B0FBF2FCB0FBF2F302FB1C0030308E
:1007E00078541846491C0028F3D123462A4630463F
:1007F000BDE8F04100F0E0BA000000002D0000006C
:100800002B0000002000000011680268006A5305F8
:1008100001D508700AE0D30501D5088006E013066B
:1008200003D5C217C1E9000200E00860012070474B
:1008300001694A1C02610878704700B58FB0CDE9A4
:1008400001310021059105497944CDE90310114694
:10085000684600F029F90FB000BD0000E5FFFFFF7A
:100860000A6802F8010B0A60704700002DE9FF5F7B
:1008700015468A460446DFF8AC80F8440027D8E9DC
:1008800000103E46CDE9001010E03AF816106A4616
:1008900002A801F05DF8411C07D02178890603D534
:1008A000E269391891420DD80744761C20788006F9
:1008B00002D5E069B84205DDAE42E6DB3AF8160043
:1008C0000028E2D1A069C01BA0612046FFF7FDFE11
:1008D000D8E90010CDE90010002017E03AF8181010
:1008E0006A4602A801F034F8B0F1FF3F81460BD010
:1008F00000250DF1080B05E0D4E901211BF80500E6
:1009000090476D1C4D45F7D308F10100B042804679
:10091000E4DB206A384420622046FFF7ECFEBDE8A5
:10092000FF9F00003A7600002DE9F0418046D21D7D
:1009300022F007020025D2E90002F52915A614D0FD
:10094000011E72F1000106DA0023D0EB030063EB15
:10095000020211A608E0D8F800108B0701D50FA6F7
:1009600002E0490701D50EA601251146002408F131
:10097000240704E000F0D2F930323A55641C50EA02
:100980000102F7D12B46324621464046BDE8F041F0
:1009900000F012BA000000002D0000002B00000043
:1009A0002000000030B4002100F1240408E002F02F
:1009B0000705D208303542EA4372DB086554491C0A
:1009C00052EA0305F3D10468002310A2250708D5D5
:1009D00004F020040C4304D0C46901230CA2641E5B
:1009E000C46130BC00F0E8B910B504462146106877
:1009F000FFF79BFE02462046BDE810400023D1E7EA
:100A0000D21D22F00701D1E90023CBE7000000004E
:100A100030000000F0B40D460188090502D5214CD4
:100A20007C4402E01F4C7C440E34002100F124067B
:100A300008E002F00F071209E75D42EA03721B09A2
:100A40007754491C52EA0307F3D1027800231207B6
:100A500004D5702D06D009B1022311342246F0BC12
:100A600000F0AAB901231034F8E770B504460D462A
:100A700021461068FFF759FE024629462046BDE888
:100A800070400023C6E7D21D22F00703D3E90023FC
:100A9000C0E70368126843F0200303600823C361C2
:100AA0000023B7E79C7400002DE9F05F89460446F7
:100AB0004FF0000ADFF874B1FB44C0F820A02046D4
:100AC000E1688847002874D0252806D0D4E90121A0
:100AD0009047206A401C2062F1E700265F462046CE
:100AE000E16888472028054607DB312D05D27819B3
:100AF00010F8200C08B10643F1E7B00701D526F045
:100B00000406C4F81CA00027C4F818A02A2D09D098
:100B1000284607F08BF938B304EB8708303DC8F856
:100B2000185019E059F8041B204604EB8702916124
:100B3000E1688847012F054618D1E069002820DACE
:100B400026F020061DE0D8F8180000EB800005EB29
:100B500040003038C8F818002046E168884705464C
:100B600007F064F90028EED1012F0AD02E2D08D10C
:100B70002046E16888477F1C0546022F46F0200684
:100B8000C4DBA069002803DA404246F00106A061F8
:100B9000F00701D026F010066C2D0BD0682D09D07F
:100BA0004C2D39D06A2D35D0742D35D07A2D33D0D7
:100BB00016E038E0E1682F4620468847B8420546EF
:100BC00009D16C2F26D04FF48060E168064320469F
:100BD0008847054604E06C2F1AD04FF48070064316
:100BE0000DB3A5F14100192802D8203546F400665E
:100BF0004A462946204626604E46FFF715FB80B13F
:100C000001280BD0F61D26F0070000F1080956E771
:100C10004020E4E78020D8E70020D6E706F1040969
:100C20004DE7284652E7206ABDE8F09F2C7400008B
:100C30003A2800D2303820F02002412A01D3A2F114
:100C40003700884201D34FF0FF30704702681144EB
:100C50001378016018467047D160054979445161A5
:100C600004497944116200211161114600F0B6BCBB
:100C7000EDFFFFFF41010000426842B1016811F839
:100C8000013B23B1521EC0E90012184670470121F2
:100C9000C160881E704742685AB1C368016843B991
:100CA00083688B4205D0491E521CC0E90012002007
:100CB00070474FF0FF30704710B5203AC0F00B80FE
:100CC000B1E81850A0E81850B1E81850A0E8185042
:100CD000203ABFF4F5AF5FEA027C24BFB1E81850B8
:100CE000A0E8185044BF18C918C0BDE810405FEA1A
:100CF000827C24BF51F8043B40F8043B08BF704796
:100D0000D20728BF31F8023B48BF11F8012B28BF9A
:100D100020F8023B48BF00F8012B704730B5B0F116
:100D20000A0271F100034FEA900E4EEA817EB0EBA9
:100D30000E0061EB91014FEA101E4EEA017E10EBAE
:100D40000E0041EB11114FEA102E4EEA016E10EB2E
:100D50000E0041EB11214FEA104E4EEA014E10EB0E
:100D60000E0041EB1141401841F100014FEAD00063
:100D700040EA41704FEAD1014FEA810444EA90749D
:100D800010EB800544EB01046D1944EB0404521B85
:100D9000A3414FF0000348BF0A3200D530BD401CCC
:100DA00041F1000130BD10B5044600F01BFE0068A3
:100DB000005D00F0010010BD2DE9F0470D46994699
:100DC0009246044600F124080168880604D5E069CB
:100DD00021F01001216000E00120A84201DD471B45
:100DE00000E00027A1697A1902EB0900081AA06146
:100DF0002078C00602D42046FFF767FC002608E0F2
:100E0000D4E901211AF806009047206A401C761C9C
:100E100020624E45F4DB2078C0060AD52046FFF755
:100E200054FC06E0D4E9012130209047206A401CA0
:100E30002062381EA7F10107F4DC07E0D4E90121A4
:100E400018F805009047206A401C2062281EA5F172
:100E50000105F3DC2046FFF74EFC2078000602D5A2
:100E60000220BDE8F0870120FBE72DE9FF4F0C468B
:100E70001E464FF0FF378BB0D2E90001DDF86080ED
:100E80000A908A46C1F30A5505B93D460021084635
:100E90004FF00000BAF1000F00F4400005DA00EB5B
:100EA00080004FF4400101EA50004FEA9059B9F137
:100EB000010F00DDB9460A9850EA4A000ED044F608
:100EC0001050A5F2FF3545432F14B8F1000F1ED086
:100ED0007542291E1EDDC9F100021CE0B8F1010FA8
:100EE0004FF0000001D0302103E0F24305E021542F
:100EF000401CB042FBDB30460022002121540B99FC
:100F0000C1F80880C1E900200FB0BDE8F08FBD1B1B
:100F10006D1CDEE74A4600DA694206A800F0AEFD25
:100F200006AB93E8070003AB83E8070050460A9935
:100F300006F09BFB8DE80700A0F500501F380090DD
:100F40000398002D0ADD42F21F014A46084400239F
:100F500003A90390684606F005FE09E0A0F50050DD
:100F60004A461F38002303A90390684606F00FFE87
:100F70008DE807000004000C03D04FF0FF3041085B
:100F800000E01046B8F1000F03D000220092154691
:100F90001EE0751E05D4FFF7C1FE303262556D1E8E
:100FA000F9D5B3460122084302D000227F1C04E099
:100FB0002078302801D100227F1E002A099784D092
:100FC0001DE0112D07DAFFF7A9FE303262556D1CC6
:100FD00050EA0102F5D1084302D00098C8B10EE0F2
:100FE0000021681E05E0235C625C63542254401EAD
:100FF000491C8142F7DBAB46A81B401E099000202C
:1010000004F80B000B98099AC0F80880C0E9002B7F
:101010007AE711264FF0000857E72DE9F04F884690
:101020000446D21D22F0070191B0D1E90001CDE9BB
:101030000A0106F0E3FE02460B98C00F01D02D20F6
:1010400007E02068810701D52B2002E0202101EA7A
:10105000C000032A099001D0072A05DB0346414658
:10106000204600F0CBFC0BE12078800601D5E0693A
:1010700000E00620B8F1650F814606D0B8F1660F92
:1010800018D0B8F1670F70D131E00020B9F1110F1D
:10109000009001DB112301E009F101030AAA01A973
:1010A0000CA8FFF7E2FEDDE90C70002609F101054E
:1010B000834647E001204B4600904FF000470AAAC4
:1010C00001A90CA8FFF7D1FEDDE90DB00C995D4632
:1010D000002610B909F101000D18B9EB050003D481
:1010E000C0F1FF3609F10105A5EB09002BE0B9F1CC
:1010F000010F01DA4FF001090020B9F1110F009042
:10110000484601DD112300E003460AAA01A90CA804
:10111000FFF7ABFEDDE90C704D46002683462078D4
:1011200000070AD4AB4500DA5D4601A8012D04DDB5
:10113000411911F8011C302907D04F4502DA17F187
:10114000040F04DA012082460FE06D1EEEE7002F47
:1011500002DCED1B3E4403E0781CA84200DD7D1C50
:10116000B81B00F1010A4FF000472078000703D4B4
:10117000AA4501DB4FF0FF3A0021B7F1004F0DF116
:1011800043088DF8431024D002202B23002F01DACE
:101190007F422D230A21021EA0F1010000DC5FB175
:1011A00097FBF1FC97FBF1F201FB1C7C17460CF15D
:1011B000300C08F801CDEEE7A8F10100037021889A
:1011C000090501D5452100E06521A0F1010800F8DD
:1011D000011C09980FA9A1EB0807FF1D00B1012010
:1011E000411901EBEA70A1693844081A401EA06158
:1011F0002078C00602D42046FFF767FA099828B184
:10120000D4E901219047206A401C20622078C00662
:1012100022D52046FFF759FA1EE0002E04DBB34525
:1012200002DD01A8805D00E03020D4E90121904773
:10123000206A401C2062761CAAF101005FEA000AC5
:101240000AD100F0D7FBC0680168405CD4E90121F5
:101250009047206A401C2062281EA5F10105DCDCB5
:1012600007E0D4E9012118F8010B9047206A401CDF
:101270002062381EA7F10107F3DC2046FFF73BFA96
:10128000032011B041E600002DE9F04F04460D4661
:10129000D21D22F0070089B0D0E9009748463946B0
:1012A00006F0ACFD0246F80F01D02D2307E02068C0
:1012B000810701D52B2302E0202101EAC0038DF82C
:1012C00020300BB1012000E00020032A824601D02B
:1012D000072A04DB2946204600F090FB3FE12078F6
:1012E000800601D40D2500E0E569C7F30A560D2DEF
:1012F00049DA00214FEA175B08464FF00000002F43
:1013000000F4400007DA00EB80004FF4400100EBEE
:10131000D07001EA60008115012901DD4FF0FF3135
:1013200000224FEA850CBCF1180F06D31346ACF12E
:1013300018004FF08052C24003E04FF4801323FAAC
:101340000CF30CF10C0CBCF1200F04D3ACF1200C0D
:1013500009FA0CF001E007FA0CF000294FF0004800
:1013600001DD18B90FE00ED140450CD319EB02098D
:101370005F4121B9404502D19F4329EA0209BBEBF5
:10138000175F00D0761C2088000502D57B48784482
:1013900002E07A487844193808AA302302F80A3063
:1013A000037C0AF10101002E0AF1020A53546A4635
:1013B00002DC4FF0300101E04FF031014FF0010845
:1013C0008DF8001002D0A6F2FF3603E059EA47017B
:1013D00000D06B4E002D02DC2178090704D54FF0B8
:1013E00002082E218DF80110C44600210BE0C7F33E
:1013F00003433F01C35C491C6D1E02F808300529F8
:1014000008F1010801DA002DF1DC00210CE000EB0D
:101410001973491C1B786D1E082902F808304FEA21
:10142000091908F1010801DA002DF0DC21688B06AA
:1014300002D516E0A8F10108E04505DD02EB08033E
:1014400013F8013C302BF5D0B8F1000F09DD02EBA9
:10145000080313F8013C2E2B03D1090701D4A8F18E
:101460000108002D05DD3E2102F808106D1E08F16F
:101470000108407C002E02F8080008F1010804DA97
:101480002D20764202F8080002E02B2002F8080026
:101490000A214FF47A70864208F101080BDB96FBB3
:1014A000F0F3303302F8083096FBF0F308F101084E
:1014B00000FB136601E0642E0CDB642096FBF0F366
:1014C000303302F8083096FBF0F308F1010800FB16
:1014D000136601E00A2E06DB96FBF1F0303002F8CD
:1014E000080008F1010896FBF1F001FB10603030B4
:1014F00002F80800A16908F1010808EB050202EBF7
:101500000A00081AA0612078C00602D42046FFF71E
:10151000DCF8216A08AE01EB0A00206204E0D4E99D
:10152000012116F8010B9047BAF1010AF7D2207891
:10153000C00602D52046FFF7C8F86E4609E016F847
:10154000010B3E280FD0D4E901219047206A401CAE
:101550002062B8F10108F2D22046FFF7CCF809B0BA
:101560000320BDE8F08F206A2844206203E0D4E91C
:101570000121302090476D1EEBD3F8E77A6B000015
:1015800002FCFFFF10B5436913B1AFF3008001E027
:10159000FFF7D4F8012010BD127800F124010A7081
:1015A00000224A700122EDE711684FF0FF32E9E7AF
:1015B00010B5436913B1AFF3008001E0FFF756F9AE
:1015C000012010BD128800F1240182840022C2840F
:1015D0000122EDE711684FF0FF32E9E72DE9F34F03
:1015E0004FF0000A0C4656468DB001200C9001F1D8
:1015F0000C000B9062690B9801219047051E2DD0BD
:10160000252D2CD0216A8847C0B162690B98012131
:101610009047216A88470028F7D16269411E0B98DC
:10162000904700E0761CA1690D988847216A884799
:101630000028F7D1E1690D988847DBE7A1690D988B
:101640008847A842074601D1761CD3E7E1690D9887
:1016500088477F1C02D1BAF1000F6FD06BE162693D
:101660000B9800273D46394690472A2804D16269E5
:101670000B98012190470125DFF8D08262690B9811
:1016800001219047A0F130010A290AD24745E5DC43
:1016900007EB870100EB4107303FDFD445F0100531
:1016A000ECE7E90601D46FF000476C280AD04C281B
:1016B00014D0682815D06A280DD074281CD07A2838
:1016C0001AD01DE062690B98012190476C2802D066
:1016D00045F0040514E045F002050DE045F0200555
:1016E0000AE062690B9801219047682802D045F012
:1016F000080505E045F4006562690B9801219047F3
:10170000C4E9015765283DD019DC58287AD00CDC93
:10171000452837D004DC252826D041289ED131E049
:1017200046282FD0472899D12CE05B2877D0612814
:1017300028D063287CD0642823D15AE0F6E06F28B3
:1017400048D008DC66281DD067281BD0692821D026
:101750006E2816D127E0702845D0732868D07528E8
:1017600047D078280DD14DE0A1690D9888472528EC
:1017700005463FF469AFE1690D9888476D1C3FF459
:101780006AAFD8E00D9923466A466FF00100AFF3C7
:101790000080C5E045F0400023464FF00002606045
:1017A000A80736D43EE0E8077FF447AF2068011D64
:1017B00021600068290501D506701BE7290701D5BE
:1017C000068017E7A90703D5F117C0E9006111E703
:1017D00006600FE745F0400023464FF008026060C6
:1017E000A80716D41EE040F60E0125EA010060604D
:1017F00016E045F0400023464FF00A026060A8075B
:1018000007D40FE045F040006060A80708D52346E4
:1018100010220D996FF00100AFF3008080E007E027
:10182000102223460D996FF00100FEF731FE77E09C
:101830004FF0000963284F46C8464B46CB4602D0BE
:101840005B2806D038E0E80601D40120A06001271B
:1018500032E06269D4F80CB00B98012190475E2801
:1018600007D14FF0010949466269D4F80CB00B98D2
:101870009047216939B900210A4603AB43F821207A
:10188000491C0829FADBD8B3216949B308F10108DA
:1018900062690B98012190475D28F4D1B9F1000FDE
:1018A00009D0002003A951F82020D24341F820207C
:1018B000401C0828F7DB03AB2069002820794FEA99
:1018C00040701ED05B462246CDF80080CDE90197DE
:1018D0000D9900286FF0010020DAAFF300801FE0BF
:1018E000C11703AA00EBD1614B1121F01F0102EBDC
:1018F0008302411A13680120884003431360C7E73D
:1019000019E00D99224600286FF00100009702DAD5
:10191000AFF3008004E0AFF3008001E0AFF300809C
:1019200000280ADA401C06D10C9820B14FF0FF3095
:101930000FB0BDE8F08F5046FAE7E90701D10AF190
:10194000010A064400200C9054E60000CCCCCC0CDC
:101950002DE9F04116460C46054600F043F80368B1
:1019600093F80101012807D0FF2C12D8185D80B12F
:1019700001202C70BDE8F081D3F8070132462146E2
:1019800003F20713C7182846BC46BDE8F041002300
:1019900060474FF0FF30EDE7754600F0EBF8AE46DC
:1019A00005006946534620F00700854618B020B56B
:1019B000FEF7B4FCBDE820404FF000064FF00007F2
:1019C0004FF000084FF0000BAC46ACE8C009ACE8A3
:1019D000C009ACE8C009ACE8C00921F007018D4698
:1019E0007047000010B500F005F8001D10BD00BFE5
:1019F0007964000000487047380000202DE9F0416C
:101A00001F46044603260168072A01F4006004DB30
:101A100008B116A505E016A503E008B115A500E07C
:101A200015A521F010002060A069C01EA0610FB1B3
:101A3000401EA0612046FEF748FE4FB1D4E90121C7
:101A400038469047206A401C2062C01C206206E095
:101A5000206AFAE7D4E9012115F8010B9047761EB8
:101A6000F8D22046FEF747FEBDE8F0814E414E0019
:101A70006E616E00494E4600696E66002DE9F047C2
:101A8000814616468AB0354878440DC88DE80D0069
:101A900032487844801C03AC0DC884E80D0041F640
:101AA0009B300844372190FBF1F290FBF1F5A5F152
:101AB000800501FB12041B3C02D56442012000E0BA
:101AC0000020DFF898A080460027FA44AAF1BE0A59
:101AD0000EE0E0070AD03246684607EB47010123D3
:101AE0000AEB810106F053F88DE8070064107F1CB3
:101AF000002CEED1194F7F44AE3F19E0E80715D016
:101B000007EB04100DF1180A90E80E008AE80E00A9
:101B1000C068F04201D1981908903246012306A905
:101B200003A806F034F803AB83E807006D10641CCB
:101B3000002DE3D14FF0010332466946B8F1000FA2
:101B400003A802D006F00EF801E006F020F8C9E97B
:101B50000001C9F808200AB0BDE8F0871065000050
:101B600010B50446AFF300802046BDE81040FEF7F4
:101B7000C0BB0000004870471800002000000000B3
:101B800030B44FF0013C50F8042B51F8043BCCFA30
:101B900052F4D51A20D1FCB950F8042B51F8043B6B
:101BA000CCFA52F4D51A17D1B4B950F8042B51F825
:101BB000043BCCFA52F4D51A0ED16CB950F8042B70
:101BC00051F8043BCCFA52F4D51A05D1002CDAD0E6
:101BD00030BC4FF00000704729BAB1FA81F111F022
:101BE0001801D1F120008440F2D1CA40CB4012F05C
:101BF000FF0213F0FF0330BCD01A704701491820D0
:101C0000ABBEFEE72600020070470000FEE70000C2
:101C100010B52DED0A8B40F260549FED239A9FED95
:101C200023AA9FED23BA9FED23CAC2F20004B7EEA8
:101C3000088A2046B0EE480AF0EE490AB0EE4A1A89
:101C4000F0EE4B1AB0EE4C2A02F080FE04F13000A8
:101C5000B0EE480AF0EE490AB0EE4A1AF0EE4B1A1E
:101C6000B0EE4C2A02F072FE04F16000B0EE480AB9
:101C7000F0EE490AB0EE4A1AF0EE4B1AB0EE4C2ADA
:101C800002F064FE04F19000B0EE480AF0EE490A5A
:101C9000B0EE4A1AF0EE4B1AB0EE4C2ABDEC0A8BAD
:101CA000BDE8104002F052BECDCCCC3D0AD7A33CDB
:101CB0000000C6420000C6C22DE9F04381B02DED00
:101CC0000C8B84B040F2D400C2F20000016801A87D
:101CD00000224FF6FF7403F0DFFA019840F200058E
:101CE00040F288181028C2F20005C2F200080DD197
:101CF000BDF80810BDF80A00A142A980E88018BF0D
:101D0000A04203D003F0AAFAC8F8000040F2CC09C0
:101D1000C2F20009D9F800000A2103F05BFB28B9E0
:101D20006968D9F80000296003F02AFB03F096FAED
:101D3000D8F800109FED700A401A632829D8A888A7
:101D4000A04226D0B5F90600B2EE043AC0F1700008
:101D500001EE100AB8EEC11AB0EEC12AB4EE432A61
:101D6000F1EE10FA15DD9FED652A9FED650A21EE73
:101D7000021AB4EE401AF1EE10FA0ADC9FED612A65
:101D8000B0EE410AB4EE421AF1EE10FAB8BFB0EE6E
:101D9000420A98ED011A9FED5C2A9FED5C3A20EE15
:101DA000020A21EE031A31EE008A002088ED018A32
:101DB00000F0F0F800B200EE100A9FED55CAB8EE40
:101DC000C00A9FED54DA20EE0C0A80EE0D9A40F224
:101DD0006056C2F200063046B0EE480AF0EE490AFC
:101DE00002F0C4FDBDEEC00A10EE104A00202146EC
:101DF00002F014FD012000F0CDF800B200EE100A50
:101E0000B8EEC00A20EE0C0A80EE0DAA06F13000F2
:101E1000B0EE480AF0EE4A0A02F0A8FDBDEEC00A94
:101E200010EE105A0120294602F0F8FC022000F0C2
:101E3000B1F800B200EE100AB8EEC00A20EE0C0AAB
:101E400080EE0DBA06F16000B0EE480AF0EE4B0AE3
:101E500002F08CFDBDEEC00A10EE107A0220394669
:101E600002F0DCFC032000F095F800B200EE100A4E
:101E7000B8EEC00A20EE0C0A80EE0DCA06F1900002
:101E8000B0EE480AF0EE4C0A02F070FDBDEEC00A5A
:101E900010EE106A0320314602F0C0FCD9F80000B1
:101EA0000A2103F097FA28B104B0BDEC0C8B01B005
:101EB000BDE8F083D9F8000088ED048A88ED058A32
:101EC00088ED068A88ED078A88ED089A88ED09AAC8
:101ED00088ED0ABA88ED0BCAA8F80840A8F80A509D
:101EE000A8F80C70A8F80E6003F04AFA04B0BDEC34
:101EF0000C8B01B0BDE8F083000000006666E63E92
:101F000000004842000048C29A99993E3333333F5B
:101F10007C91843C0AD7233C70B540F2CC06C2F2D7
:101F2000000630680A2103F055FA002818BF70BD7A
:101F300040F20000C2F20000B0F90040B0F90250D7
:101F4000306803F01DFA03A021462A46BDE8704020
:101F500002F0FCBD526563656976656420436F6F6E
:101F6000726473202D3E20583A2025642C20593A63
:101F70002025640D0A00000040F26020C2F200003B
:101F800000F09CB840F2C020C2F2000000F096B809
:101F900070470000014603284FF0000088BF7047DB
:101FA00003A252F8211009684A6A486210B27047C9
:101FB00020030020B00300204004002088040020FB
:101FC00080B540F22030C2F200003C2101F002F95D
:101FD00040F2B030C2F200003C2101F0FBF840F2C8
:101FE0004040C2F200003C2101F0F4F840F2884089
:101FF000C2F200003C21BDE8804001F0EBB80000D7
:1020000072B600BFFEE7000070B5866D044600F0B2
:10201000C7FA94F83510022928D105462068216CAA
:10202000026822F016020260426922F080024261D8
:1020300009B9A16C19B1016821F0080101600168BA
:1020400021F00101016000BF20680068C00715D0C1
:1020500000F0A6FA401B0628F6D320206065032076
:1020600084F83500002184F8341070BD802060654C
:102070000120002184F8341070BD00BFE06D3F21C5
:1020800001FA00F0B060012084F835000020002142
:1020900084F8341070BD000090F83510022909D181
:1020A000052180F835100068016821F00101016008
:1020B000002070478021416501207047F0B581B054
:1020C0000021009140F21001C2F200010B68D0E93A
:1020D000166148F2B51537680822C1F64E358A40B8
:1020E0003A42A3FB05350CD003681C68640708D589
:1020F0001C6824F004041C60B260426D42F00102CE
:10210000426501228A403A4208D003685B691B0697
:1021100004D5B260426D42F00202426504228A4058
:102120003A4208D003681B689B0704D5B260426D31
:1021300042F00402426510228A403A4219D00168F6
:102140000B681B0715D5B2600B680A685B0309D4DE
:10215000D20509D40A6822F008020A60016C29B984
:1021600007E000BF110341D4016C11B10446884758
:102170002046C26D202101FA02F33B4243D00168A0
:102180000F68FF063FD5B36090F835700B68052FD8
:102190001CD123F016030B604B6923F080034B61C5
:1021A000036C0BB9836C1BB10B6823F008030B6045
:1021B0003F219140B160012180F83510016D00226E
:1021C000002980F8342054D158E000BF0A685B032E
:1021D00010D4D20512D40A6822F010020A6001213C
:1021E00080F83510002180F8341007E0816C002958
:1021F000BCD1BEE7110301D4416C00E0C16B11B149
:10220000044688472046416DC1B3416DC9072ED0B1
:10221000052180F835100168AA0A0B6823F0010334
:102220000B60009B0133934200931AD80B68DB07C5
:1022300017D0009B01339342009312D80B68DB0741
:102240000FD0009B0133934200930AD80B68DB0741
:1022500007D0009B01339342009302D80B68DB0741
:10226000DFD1012180F83510002180F83410C16CD5
:1022700021B101B0BDE8F040084700BF01B0F0BD9A
:102280002DE9F041044600F08BF9ECB1054602203F
:1022900084F835000020216884F83400086820F0B4
:1022A0000100086021680868C00711D000F078F9C3
:1022B000401B0528F6D9032520230320636584F8F5
:1022C0003550BDE8F08100BF0120BDE8F08100BFBE
:1022D000086848F23F02CFF21002D4E9013500EA63
:1022E000020C04F10C0898E8C10143EA0C032B43EB
:1022F0001843D4E9072E304338431043626A40EA5A
:102300000E00042A40EA08031CD1206BD4E90A2EEF
:1023100040EA0E00184308604869BEF1000F20F043
:10232000030040EA020040F0040C11D0B8F5005F51
:1023300036D0B8F1000F45D1022A46D0012A3BD051
:1023400032B942E00B60486920F0070040EA020C15
:1023500001F0F8004AF6AB221038CAF6AA22A0FB18
:1023600002231A0947F6CC73C1F814C0C0F6000363
:102370009A5C40F2FF335F284FF03F0021EA0301EF
:1023800000FA02F088BF0431C4E916128860002305
:1023900001250020636584F83550BDE8F08100BF59
:1023A000032AD5D8012540230120DFE802F0030EDF
:1023B000030500BF82E700BFAEF1C070B0FA80F045
:1023C000400904E0032A04D3C2D1CEF30060002800
:1023D000BED0012540230120636584F83550BDE857
:1023E000F08100002DE9F04F83B000F1200200F1F0
:1023F0003E4741F60045009207F1FF77C4F202051F
:1024000008224FEAB726A84208BF072200254FF04E
:1024100000084FF00009072E38BF4FEAB72201929B
:102420000AE000BF09F1010908F10208B9F1100F33
:1024300005F1040500F0A2800F68012202FA09FEEE
:1024400017EA0E0AEED0D1F804C003220CF00307FD
:102450007E1E02FA08F4012E6FEA040B12D884687B
:10246000CE6804EA0B0406FA08F634438460446834
:1024700024EA0E06CCF3001404FA09F4264346605D
:1024800004E000BF032F01D103271EE0C6688C685B
:1024900006EA0B0604FA08F42643022FC66014D19C
:1024A0006FF00302009E02EA590756F807C005F0D4
:1024B0001C040F220B69A2402CEA0202A3401A431B
:1024C000F251D1F804C00CF00307026807FA08F3D0
:1024D00002EA0B021A431CF4403F0260A2D0002221
:1024E00043F644030292C4F202031A6843F600441E
:1024F00042F480421A601A68C4F2010402F4804275
:102500000292029A29F003024FF6084C2244CFF6B9
:10251000FF7C52F80C3005F00C070F26BE40B34389
:10252000019E06FA07F73B4342F80C30A2684B685D
:1025300042EA0A0743F60C4CDE0258BF22EA0A07B9
:10254000A760C4F2010CDCF800209E0242EA0A07F0
:1025500058BF22EA0A07CCF8007062689E0342EA7C
:102560000A0758BF22EA0A0767602268DB0342EACB
:102570000A0758BF22EA0A07276053E703B0BDE8FD
:10258000F08F0000426902EA0103914341EA0341EE
:1025900081617047002A08BF09048161704700000B
:1025A00040F2AC60C2F201000068704740F20800DF
:1025B00040F2AC61C2F20000C2F2010100780A6888
:1025C000104408607047000080B543F60040C4F234
:1025D0000200016841F400710160016841F480610A
:1025E0000160016841F480710160032000F0C2F8CD
:1025F000052000F005F800F05DF8002080BD000027
:1026000070B586B0002543F640010195C4F2020181
:102610000A68044642F480720A60096801A801F45D
:10262000807101910199694600F066F9049E002EBF
:1026300018BF012600F080F94DF68361B040C4F266
:102640001B31A0FB01014FF0FF3000EB914140F244
:10265000683042F20002C2F20000C4F2000240F20E
:10266000E733C0E90021C0E902530561856100F04C
:10267000F9FB08B106B070BD40F26830C2F200004C
:1026800000F020FC0028F5D12D2000F035F80F2CAB
:102690000CD82D202146002200F040F840F20C0119
:1026A0000020C2F200010C6006B070BD012006B02F
:1026B00070BD000082B0002043F640010190C4F2DA
:1026C00002014A6842F480424A604A6802F4804249
:1026D0000192019A00900868002240F08050086042
:1026E00008680F2100F08050009000986FF0010002
:1026F00002B000F013B80000002848BF704700F097
:102700001F01012202FA01F11C2202EAD0004EF25E
:102710000012CEF2000281507047000010B54EF654
:102720000C5CCEF2000CDCF80030C3F3022E8EF00D
:102730000704042C28BF0424BEF103034FF0FF3E1E
:102740000EFA04F438BF0023A14399400EFA03F3B4
:102750009A43114300F00F0200F160430901043A6B
:1027600003F564436244002848BF02F10C0319706A
:1027700010BD00004EF60C51CEF200010A684FF673
:10278000FF031A4060F30A2242F0806040F0FD70BF
:1027900008607047002804BF012070472DE9F04110
:1027A00043F60808C4F202080446D8F8F8030D46B8
:1027B00000F00700884207D288F8F853D8F8F803E9
:1027C00000F00700A84277D12068810717D541079C
:1027D00005D5D8F8001041F4E051C8F80010010701
:1027E00005D5D8F8001041F46041C8F80010D8F8B9
:1027F0000010A26821F0F0011143C8F80010C007D2
:1028000040D1D8F8F80300F00700A84207D988F8AB
:10281000F853D8F8F80300F00700A8424CD120681C
:10282000410707D5D8F80010E26821F4E0511143C0
:10283000C8F80010000708D5D8F80000216920F476
:10284000604040EAC100C8F8000000F09DF8D8F8E8
:10285000001047F6B472C1F30311C0F60002515CD8
:1028600040F2100220FA01F140F20C00C2F2000026
:102870000068C2F200021160FFF7C2FE0020BDE84E
:10288000F08100BF6068811E022907D258F8081C39
:1028900089015CBF0120BDE8F08111E0012807D16A
:1028A00058F8081C89035CBF0120BDE8F08107E0EF
:1028B00058F8081C890703D40120BDE8F08100BF47
:1028C000D8F8001021F003010843C8F80000FFF712
:1028D00067FE064641F28837D8F80000616800F0CC
:1028E0000C00B0EB810F8CD0FFF75AFE801BB84272
:1028F000F2D90320BDE8F0810F22026043F60802FE
:10290000C4F20202136803F003034360136803F088
:10291000F0038360136803F4E053C360D2F800C08F
:102920004FF4E05303EADC030361D2F8F80300F04C
:10293000070008607047000040F2100043F60801ED
:10294000C2F20000C4F202010068096847F6C472CE
:10295000C1F38221C0F60002515CC84070470000FC
:1029600040F2100043F60801C2F20000C4F2020176
:102970000068096847F6C472C1F34231C0F600022C
:10298000515CC8407047000010B543F60404C4F21F
:102990000204606800F00C0142F200400829C0F215
:1029A000F40007D0042918BF10BD41F20020C0F286
:1029B0007A0010BD216801F03F02216823684902B6
:1029C000C3F3881106D4A1FB00010023FDF7B8FC76
:1029D00007E000BF41F20020C0F27A004843B0FB9C
:1029E000F2F021680222C1F3014102EB4101B0FB88
:1029F000F1F010BD002804BF012070472DE9F0411F
:102A000082B00446007843F60006C007C4F202060E
:102A10000CD0B06800F00C00042840F081803068D1
:102A2000800303D56068002800F068812078800763
:102A30001BD5B06810F00C0F09D0B06800F00C0086
:102A4000082840F087807068400200F18380306879
:102A5000800703D5E068012840F050813068216983
:102A600020F0F80040EAC10030602078000713D45D
:102A7000207840072AD4A569002D00F03A81B0687B
:102A800000F00C00082840F0A580012D40F00E81D8
:102A9000012002B0BDE8F0816069002800F082806A
:102AA0000020C4F247200121C0F8801EFFF778FD06
:102AB000054600BF706F8007DAD4FFF771FD401B39
:102AC0000228F7D9032002B0BDE8F081306C5FEA3C
:102AD000C0080AD400200190306C40F0805030646F
:102AE000306C00F080500190019847F20007C4F26A
:102AF00000073868C00547D4386840F480703860F3
:102B0000FFF74EFD054600BF3868C0053CD4FFF70F
:102B100047FD401B0228F7D9032002B0BDE8F08131
:102B2000B06800F00C00082803D1706840023FF53F
:102B300076AF61683068B1F5803F07D0B1F5A02F5E
:102B400040F09A8040F480203060306840F480305B
:102B500030609AE0E068002840F20000C4F24720AC
:102B60005CD001210160FFF71BFD0546306880073E
:102B70003FF574AFFFF714FD401B0228F6D9032080
:102B800002B0BDE8F08100BFA168306F012905D017
:102B9000052955D140F004003067306F40F0010046
:102BA000306756E00020C4F247200021C0F8801EA4
:102BB000FFF7F6FC054600BF706F80077FF558AF42
:102BC000FFF7EEFC401B0228F6D9032002B0BDE857
:102BD000F08100BF0027C4F2472700203866FFF7C6
:102BE000DFFC022D05460DD13068800140F18A805E
:102BF000FFF7D6FC401B02284FF00300F4D902B0C7
:102C0000BDE8F0813068800173D5FFF7C9FC401B37
:102C100002284FF00300F5D9F1E700BF0021016061
:102C2000FFF7BEFC054600BF306880077FF51DAF8B
:102C3000FFF7B6FC401B02284FF00300F4D9DEE793
:102C400020F001003067306F002920F00400306769
:102C50007AD0FFF7A5FC054641F28837306F800730
:102C600000F18480FFF79CFC401BB842F6D903209A
:102C700002B0BDE8F08100BF20F4803030603068E1
:102C8000002920F4802030607AD0FFF789FC0546C7
:102C9000306880033FF5CAAEFFF782FC401B642812
:102CA000F6D9032002B0BDE8F08100BF7068E16989
:102CB00000F480028A4221D1216A00F03F028A4258
:102CC0001CD147F6C071626A0140B1EB821F15D179
:102CD000A16A4FF6FF73C903994300F44032A1F58E
:102CE00080318A420AD1E16A00F07060B0EB016F76
:102CF00004D1002002B0BDE8F08100BF012002B085
:102D0000BDE8F08104F11C052FCD084340EA821094
:102D1000D9034FF6FF729143A1F5803140EA056077
:102D20000843706001203866FFF73AFC044600BF94
:102D300030688001DDD4FFF733FC001B02284FF020
:102D40000300F5D95BE700BFFFF72AFC054641F217
:102D5000883700BF306F800708D5FFF721FC401B84
:102D6000B8424FF00300F5D949E700BFB8F1000FB2
:102D70003FF581AE306C20F0805030647BE600BFC0
:102D8000FFF70EFC054600BF306880037FF54EAEAE
:102D9000FFF706FC401B64284FF00300F4D92EE730
:102DA000704700007047000090F83C20012A4FF067
:102DB000020254D010B580F83D200268D2F804E039
:102DC000D2F808C00C682EF07003234341F2FF7460
:102DD000C4F20004A24253600EDC40F2FF73C4F25E
:102DE00000039A4216DCB2F1804F2BD040F2004330
:102DF000C4F2000324E000BF40F2FF33C4F2010339
:102E00009A4213DC41F60003C4F200039A4219D03F
:102E1000002313E040F60003C4F200039A4211D0ED
:102E200040F60043C4F200030AE000BF44F200038E
:102E3000C4F201039A4205D040F20043C4F20103F8
:102E40009A4204D149682CF0800319439160012112
:102E5000002280F83D1080F83C20BDE8104010466C
:102E600070470000002804BF0120704710B50446D9
:102E700090F83D0028B9002084F83C00204600F07E
:102E80001FF8022084F83D002068211D01F05AFF40
:102E9000012084F8460084F83E0084F83F0084F85E
:102EA000400084F8410084F8420084F8430084F82C
:102EB000440084F8450084F83D00002010BD000067
:102EC0007047000090F83D1001291CBF0120704799
:102ED000022180F83D10006841F2FF72C168C4F21F
:102EE0000002904241F00101C1600DDC40F2FF712F
:102EF000C4F20001884215DCB0F1804F2AD040F2C4
:102F00000041C4F2000123E040F2FF31C4F20101AC
:102F1000884213DC41F60001C4F20001884219D056
:102F2000002113E040F60001C4F20001884211D0F4
:102F300040F60041C4F200010AE000BF44F2000183
:102F4000C4F20101884205D040F20041C4F20101FF
:102F5000884206D1816801F00701062904BF0020DC
:102F60007047016841F001010160002070470000D6
:102F7000002804BF012070472DE9F047044690F86F
:102F80003D000D4628B9002084F83C00204600F0A2
:102F900049F8022084F83D00206844F20702816865
:102FA00091438160211D01F0CDFE20684FF6FF782E
:102FB00081688269D0F820C0D5E9003ED5E9026A6F
:102FC00043EA0109AB6922EA080246EA03234FF605
:102FD000FC46B343D5E9076742EA0A0229691A4366
:102FE00042EA062242EA01112CF0AA026B6942EA87
:102FF0000E0241EA073142EA0312C0F808908161EB
:103000000262012084F8460084F83E0084F83F0004
:1030100084F8420084F8430084F83D000020BDE8B5
:10302000F0870000F0B587B0006840F6FF31C4F2C9
:10303000000188424FF000010691CDE90411CDE96D
:1030400002112FDCB0F1804F60D040F60001C4F2D5
:103050000001884240F0BC80002043F6300101901E
:10306000C4F202010A6942F004020A610A6902F02C
:1030700004020192019A01900A6842F002020A6079
:10308000096801F0020101910199C0210291022118
:10309000CDE90310CDE905010020C4F2020000F5DE
:1030A000806092E040F60041C4F20001884269D09D
:1030B0000021C4F20101884240F08A80002043F6DA
:1030C00030010190C4F202014A6942F001024A61F2
:1030D0004A6902F001020192019A01900A6842F0E5
:1030E00010020A60096801F01001019101994FF482
:1030F000206102910221CDE9031005900120069084
:103100000020C4F2020000F580505EE0002543F686
:1031100030000195C4F202000169002441F0010170
:1031200001610169C4F2020401F0010101910199F8
:1031300001950168022641F0010101600168012743
:1031400001F00101019101990195016841F002012D
:103150000160006802A900F00200019001984FF49C
:10316000004002902046CDE9036505950697FFF7DC
:1031700039F90820CDE90206CDE90455069704F592
:10318000806022E0002043F630010190C4F2020189
:103190000A6942F008020A610A6902F00802019213
:1031A000019A01900A6842F001020A60096801F080
:1031B000010101910199032102910221CDE903103E
:1031C000CDE905010020C4F2020002A9FFF70AF9C7
:1031D00007B0F0BD80B590F83E2090F83F3090F8F1
:1031E00042E090F843C004290AD0B9B9012A4FF04F
:1031F000010208BFBEF1010F34D0104680BD00BFF0
:10320000012B4FF0010208BFBCF1010FF5D10221E3
:1032100080F83F1080F8431000681EE0012A4FF04C
:10322000010208BF012BE8D1BEF1010FE5D1BCF1CD
:10323000010FE2D1022280F83E2080F83F2080F882
:10324000422080F8432091B10068016A21F0010119
:103250000162016A41F00101016210216FF0100268
:1032600009E000BF022180F83E1080F8421000689B
:1032700001216FF00102036A1A400262026A1143DF
:1032800001620168002241F001010160104680BD29
:103290007047000070B504460068C5680669B1074C
:1032A00016D515F0020113D06FF002010161012162
:1032B00021778069800703D02046FFF7E9FF05E00A
:1032C000204600F08FF8204600F0F0F9002020772B
:1032D000700719D515F0040016D020686FF00401AE
:1032E000016102212177806910F4407F04D02046DB
:1032F000FFF7CEFF06E000BF204600F073F820463F
:1033000000F0D4F900202077300717D515F0080019
:1033100014D020686FF00801016104212177C06991
:10332000800703D02046FFF7B3FF05E0204600F0FA
:1033300059F8204600F0BAF900202077F00619D598
:1033400015F0100016D020686FF0100101610821FF
:103350002177C06910F4407F04D02046FFF798FF22
:1033600006E000BF204600F03DF8204600F09EF940
:1033700000202077F00718BF15F0010002D13006B9
:1033800009D412E020686FF001010161204600F0CD
:1033900017FA300609D515F0800006D020686FF0C6
:1033A000800101612046FFF7FBFC700609D515F08E
:1033B000400006D020686FF040010161204600F017
:1033C00009FAB00658BF70BD15F0200008D021687A
:1033D0006FF0200220460A61BDE87040FFF7E2BCB2
:1033E00070BD00007047000090F83C30012B04BF16
:1033F000022070474FEAB202032A00F2FF802DE953
:10340000F043DFE802F003B13F7F00BF036840F202
:1034100000461C6A1A6A24F0020422F001021A62B1
:103420001A46D3F804C052F818EF8F6843F4806549
:10343000C4F20106B54244EA070405D1CF6824F07E
:103440000C0427F004073C430F68B54206D1D1E9CC
:1034500005582CF440762E4346EA080C2EF07306ED
:103460003743C3F804C09F614F6809695F631C62FA
:103470009F6947F008079F619F6927F004079F61D4
:10348000B1E000BF036840F200481C6A1A6A24F4E5
:10349000007422F480721A621A46D3F804C052F8FB
:1034A0001CEF8F6843F48065C4F20108454544EA87
:1034B000072408D1CF6840F2FF463F0224F440645D
:1034C00027EA06063443D1F80090454506D1D1E9F4
:1034D00005562CF440572E4347EA061C2EF073077E
:1034E00047EA0907C3F804C0DF614F680969DF6371
:1034F0001C62DF6947F00807DF61DF6927F0040716
:10350000DF6170E0036840F20045D3F820C01A6A1A
:1035100043F4806722F480521A621A465C6852F8BB
:103520001C8FD1F800E08E68C4F20105AF4204D1CF
:103530004D6924F4804444EA85142CF4005747EA8A
:10354000063728F4E64646EA0E265C60DE614E68E1
:1035500009691E641F62DF6947F40067DF61DF6984
:1035600027F48067DF613DE0036840F200481C6A91
:103570001A6A24F0200422F010021A621A46D3F8C4
:1035800004C052F818EF8F6843F48065C4F2010854
:10359000454544EA071407D1CF686FF0400624F090
:1035A000C00406EA07163443D1F80090454506D119
:1035B000D1E905562CF440672E4347EA860C2EF4D9
:1035C000E64747EA0927C3F804C09F614F680969C5
:1035D0009F631C629F6947F400679F619F6927F49E
:1035E00080679F6109021368194311600021BDE8DB
:1035F000F043002280F83C20084670470121002259
:1036000080F83C2008467047002804BF012070471E
:1036100010B5044690F83D0028B9002084F83C001D
:10362000204600F01FF8022084F83D002068211D8C
:1036300001F088FB012084F8460084F83E0084F8FD
:103640003F0084F8400084F8410084F8420084F888
:10365000430084F8440084F8450084F83D000020CD
:1036600010BD0000006840F20041C4F20001884231
:1036700018BF704780B582B00020019043F640002B
:10368000C4F202000168002241F0020101600068FA
:10369000072100F00200019001981D20FFF73EF87D
:1036A0001D2002B0BDE88040FFF726B8704700003B
:1036B000C1B1042908D0082914BF41224022825CEC
:1036C000012A05D016E000BF3F22825C012A11D1F9
:1036D0000222082910D0042914BF80F8412080F864
:1036E0003F200BE090F83E20012A03D1022280F80F
:1036F0003E2003E00120704780F84020006801F080
:103700001F010122036A02FA01F123EA01020262A7
:10371000026A114341F2FF72C4F200029042016258
:103720000CDC40F2FF71C4F20001884214DCB0F1FD
:10373000804F37D040F2004116E000BF40F2FF3129
:10374000C4F20101884215DC41F60001C4F2000117
:10375000884227D0002115E040F60001C4F20001A4
:1037600088421FD040F60041C4F20001884219D0BF
:103770001FE000BF44F20001C4F20101884211D0F1
:1037800040F20041C4F20101884212D1416C40F282
:10379000004340F48062C4F2010341F400419A42C4
:1037A000416406D1816801F00701062904BF0020A9
:1037B0007047016841F0010101600020704700007E
:1037C000006842F20001C4F20001884218BF70474D
:1037D000FEF7ECBE70470000704700007047000025
:1037E000B0B582B001680A68CC684B6902F02F0559
:1037F000202D04F0200505D125B102B0BDE8B04070
:1038000001F044BB5FEA027C1EBF03F0010E04F42A
:10381000907313EB0E0341D1036BD50618D5012B22
:1038200016D114F0100313D0002201920A680192FD
:103830004A680192019A496949064BD4818DC28D2B
:10384000C38D002B18BF914240F0068202B0B0BD7C
:1038500013062DD514F080032AD090F84120212A98
:10386000F4D18268B2F5805F03D10269002A00F0CA
:103870007982026A531C036212784A60C28C013A50
:103880001304C284E2D1C86820F08000C860C86810
:1038900040F04000C86002B0B0BD00BFD30718BF01
:1038A00014F4807340F0E280530700F1E580EAE011
:1038B0005206CBD514F04002C8D0CA6822F04002AC
:1038C000CA60202180F8411002B0BDE8B04000F08D
:1038D00043BC00BFC26B11684B68858D99B200294B
:1038E00000F0B480A94280F0B180C385D169B1F500
:1038F000807F00F0A080016851E8031F026821F476
:10390000807142E80313DBB1016851E8031F0268CC
:1039100021F4807142E8031393B1016851E8031F59
:10392000026821F4807142E803134BB1016851E849
:10393000031F026821F4807142E80313002BDAD1DF
:10394000016851E8051F026821F0010142E80513F2
:10395000BBB3016851E8051F026821F0010142E88C
:10396000051373B3016851E8051F026821F00101D6
:1039700042E805132BB3016851E8051F026821F0E6
:10398000010142E80513002BDAD11AE0016851E881
:10399000051F026821F0400142E80513DBB1016810
:1039A00051E8051F026821F0400142E8051393B178
:1039B000016851E8051F026821F0400142E8051343
:1039C0004BB1016851E8051F026821F0400142E84F
:1039D0000513002BDAD1202180F842100021016369
:1039E000016851E8031F026821F0100142E8031347
:1039F000DBB1016851E8031F026821F0100142E8C1
:103A0000031393B1016851E8031F026821F010010C
:103A100042E803134BB1016851E8031F026821F02B
:103A2000100142E80313002BDAD1C16B04460846AB
:103A3000FEF7EAFA204602214163818DC28D891A80
:103A400089B202B0BDE8B040FFF7C6BE8D427FF438
:103A5000FDAED269B2F5807F7FF4F8AE02224263F8
:103A600002B0BDE8B040FFF7B7BE00BF436C43F003
:103A700001034364530706D5BEF1000F03D0436C26
:103A800043F002034364930706D5BEF1000F03D051
:103A9000436C43F004034364BCF1000F06D55EEAB7
:103AA000050303D0436C43F008034364436C002BCD
:103AB0003FF4CCAE920605D525B1044601F0E6F9F7
:103AC000216820464969426C01F0400102F0080279
:103AD000891800F0B98000BF016851E8031F02682F
:103AE00021F4907142E80313BBB3016851E8031F4E
:103AF000026821F4907142E8031373B3016851E83E
:103B0000031F026821F4907142E803132BB301688C
:103B100051E8031F026821F4907142E80313002B5F
:103B2000DAD11AE0016851E8051F026821F00101AD
:103B300042E80513DBB1016851E8051F026821F076
:103B4000010142E8051393B1016851E8051F0268BD
:103B500021F0010142E805134BB1016851E8051F4E
:103B6000026821F0010142E80513002BDAD1016B54
:103B7000012924D1016851E8031F026821F01001D6
:103B800042E80313DBB1016851E8031F026821F02A
:103B9000100142E8031393B1016851E8031F026862
:103BA00021F0100142E803134BB1016851E8031FF3
:103BB000026821F0100142E80313002BDAD1202122
:103BC00080F842100021016301684969490640F10B
:103BD000C380016851E8051F026821F0400142E8F6
:103BE0000513DBB1016851E8051F026821F04001AF
:103BF00042E8051393B1016851E8051F026821F0FE
:103C0000400142E805134BB1016851E8051F026805
:103C100021F0400142E80513002BDAD1C16B0029E5
:103C200000F09A8044F68162C0F60002044608461D
:103C30000A65FEF731FA00283FF408AEE06B016D2B
:103C400002B0BDE8B04008470446FFF7C7FD0020BA
:103C5000606402B0B0BD00BF891A00BF026852E8BC
:103C6000032F036822F4907243E80325BDB3026872
:103C700052E8032F036822F4907243E8032575B3DA
:103C8000026852E8032F036822F4907243E8032588
:103C90002DB3026852E8032F036822F4907243E8C0
:103CA0000325002DDAD11AE0026852E8052F0368D7
:103CB00022F0010243E80525DDB1026852E8052F34
:103CC000036822F0010243E8052595B1026852E835
:103CD000052F036822F0010243E805254DB1026873
:103CE00052E8052F036822F0010243E80525002D64
:103CF000DAD1202280F8422000220263026852E8D2
:103D0000032F036822F0100243E80325DDB10268A7
:103D100052E8032F036822F0100243E8032595B10F
:103D2000026852E8032F036822F0100243E80325DB
:103D30004DB1026852E8032F036822F0100243E8F5
:103D40000325002DDAD1022289B2426302B0BDE818
:103D5000B040FFF741BD00BF02B0BDE8B040FFF783
:103D60003DBD00BF026A32F8023B6FF35F234B6038
:103D7000026283E5002804BF0120704710B50446A5
:103D800090F8410028B9002084F84000204600F057
:103D900021F8242084F841002068C16821F40051F2
:103DA000C160204601F0F2F82068016921F49041D9
:103DB0000161416921F02A014161C16841F400516A
:103DC000C16000202021606484F8411084F8421012
:103DD000606310BD2DE9F04387B00446006844F6E7
:103DE0000001C4F2000100268842CDE90566CDE954
:103DF000036602963AD041F20001C4F20101884202
:103E000040F0A880002043F630010190C4F2020186
:103E10004A6942F010024A614A6902F010020192B6
:103E2000019A01900A6842F001020A60096801F0F3
:103E30000101019101994FF4C06102910221CDE984
:103E4000031003200590072006900020C4F2020012
:103E500002A9FEF7C7FA252005210022FEF75EFC25
:103E60002520FEF749FC07B0BDE8F08343F630009B
:103E70000196C4F20200016946F2280841F480214B
:103E800001610169C4F2020801F4802101910199E4
:103E90000196016841F002010160006802A900F08A
:103EA0000200019001984FF4406002900220CDE999
:103EB000030603200590072006900020C4F20200AC
:103EC00000F58060FEF78EFA40F26025C2F2000530
:103ED0004FF480704FF000674FF48069C5E90660C9
:103EE0002846C5E90087C5E90266C5E90496C5E923
:103EF0000866FEF7C5F9002818BFFEF781F8E563EC
:103F0000AC6340F2C02508F13000C2F20005402148
:103F1000C5E9000705F10800002280E806022846EE
:103F2000C5E90522C5E907226A62FEF7A9F900285A
:103F300018BFFEF765F8272005210022A563AC63B2
:103F4000FEF7ECFB2720FEF7D7FB272007210022F6
:103F5000FEF7E4FB07B0BDE8F083000090F84230C4
:103F6000202B07D100294FF0010318BF002A05D1EB
:103F70001846704702231846704700BF00230363AA
:103F8000816222218285C285436480F842100169E2
:103F9000006819B1C16841F48071C160416941F0A4
:103FA00001014161C16841F02001C16018467047BC
:103FB00010B5044600F0FCFD2046BDE8104001F0BD
:103FC000D5B800002DE9F04381B0044690F84100D7
:103FD000202809D100294FF0010018BF002A07D17D
:103FE00001B0BDE8F08300BF022001B0BDE8F0835E
:103FF0000020606421201D460E4684F841001746CB
:10400000FEF7CEFAA784E784A1688146B1F5805F08
:1040100002D1206900285DD037460020E28C21685B
:10402000002A5DD06A1C24D0002D4AD0804600BFF3
:104030000868000608D4FEF7B3FAA0EB0900A8420E
:104040007AD82168C868F3E717B117F8010B04E0C4
:1040500038F8020B00276FF35F204860E08C0138CE
:10406000E084E08C0028E3D13AE000BF0A68120641
:1040700009D40A68120606D40A6812065CBF0A68E8
:104080005FEA0262F2D51FB117F8012B05E000BF0D
:1040900030F8022B00276FF35F224A60E28C013A6E
:1040A000E284E28C002AE4D11AE000BF30F8022B4F
:1040B00000276FF35F224A60E28C013AE284E28CCF
:1040C00072B10A68120635D5002FEFD017F8012B10
:1040D000F1E700BF00273046E28C2168002AA1D119
:1040E000086840061ED42DB3681C14D10868400629
:1040F0002AD40868400627D40868400624D40868F3
:1041000040064FF00000F1D50DE000BF2068C16807
:104110000068400618D4FEF743FAA0EB0900A84255
:10412000F4D909E00020202184F8411001B0BDE855
:10413000F08300BFFEF734FA0320202184F84110F9
:1041400001B0BDE8F08300BF0020202184F84110B9
:1041500001B0BDE8F083000070470000FEE70000FA
:1041600080B582B00020019043F63000C4F2020016
:104170000168002241F4001101600068052100F48B
:104180000010019001980C20FEF7C8FA0C20FEF7F1
:10419000B3FA0E2005210022FEF7C0FA0E2002B06D
:1041A000BDE88040FEF7A8BA70B5A4B0002522A8EB
:1041B000CDE9225501F0DCF840F2CC06C2F200064F
:1041C000306020A80121CDE9205501F031F970605F
:1041D0002BA0C268D0E90110CDE91E022848CDE924
:1041E0001C011CA8002101F041F82949B06028A059
:1041F000051D15912ECDD0E905400DF1580C8CE828
:104200002E00CDE91A4015A8002101F08FF92749A9
:10421000F06026A0051D0E912ECDD0E905400DF1D0
:104220003C0C8CE82E00CDE913400EA8002101F0D3
:104230007DF92549306124A0051D07912ECDD0E9D7
:1042400005400DF1200C8CE82E00CDE90C4007A8AC
:10425000002101F06BF92349706122A0051D009136
:104260002ECDD0E905400DF1040C8CE82E00CDE9EF
:1042700005406846002101F059F9B06124B070BDD5
:104280000100000004000000000000000000000029
:10429000EB7F0008F94B0008000000000000000060
:1042A000800000000000000000000000D47F000833
:1042B000DD4B0008030000000000000000010000CA
:1042C0000000000000000000E07F0008214C000812
:1042D00000000000000000000002000000000000DC
:1042E00000000000F77F0008154C0008FEFF0000EA
:1042F00000000000000200000000000000000000BC
:104300002DE9F04F87B0002543F630000695CDE942
:104310000455CDE902550195C4F20200016840F24E
:10432000004841F0100101600168C4F2020801F088
:104330001001019101990195016808F5805941F03A
:10434000040101600168012201F004010191019959
:10435000019501684FF0010A41F0200101600168F8
:1043600001F02001019101990195016841F080015E
:104370000160016801F080010191019901950168D6
:1043800041F001010160016801F001010191019911
:104390000195016841F002010160016801F002012C
:1043A000019101990195016841F0080101600068DF
:1043B0004FF4007100F00800019001984846FEF7A4
:1043C000E9F808F580673846302100224FF0300BBD
:1043D000FEF7E0F840464FF440410022FEF7DAF8DD
:1043E00008F5006630464FF470610022FEF7D2F8FF
:1043F000102002A902AC81E8210408F540602146A2
:10440000FDF7F0FF4FF40070CDE9020A484621465F
:10441000CDE90455FDF7E6FF38462146CDE902BA5D
:10442000CDE90455FDF7DEFF4FF44040CDE9020A27
:1044300040462146CDE90455FDF7D4FF4FF47060A6
:10444000CDE9020A30462146CDE90455FDF7CAFF01
:1044500007B0BDE8F08F000010B58CB040F22030FE
:1044600000210024C2F20000C4F20101C0E90014DE
:104470000321CDE9031401214FF6FF72CDE90514A4
:10448000CDE9091403A9CDE90044C0E90242C0E91D
:1044900004448461CDE907440B94FEF769FD0028CC
:1044A00018BFFDF7ADFD40F22030C2F200006946B2
:1044B000CDE90044FEF778FC002818BFFDF7A0FD09
:1044C0000CB010BD80B58CB040F2B0300021C2F20B
:1044D00000004FF08042C0E9002103224FF0FF337B
:1044E000CDE903210122CDE90011C0E902130161E8
:1044F0008161CDE90521CDE90711CDE909210B91B4
:1045000003A9FEF735FD002818BFFDF779FD40F23D
:10451000B030C2F200006946FEF746FC002818BF22
:10452000FDF76EFD0CB080BDF0B591B040F20045D6
:1045300040F2F830C4F200050021C2F20000292246
:104540006323CDE90811CDE90611CDE90411C0E9D5
:104550000052C0E9021301618161FFF755F800289C
:1045600018BFFDF74DFD40F2F830C2F2000008A977
:10457000FEF71AFC002818BFFDF742FD60200190ED
:104580000020CDE90200059040F2F830C2F20000B0
:1045900001A90022FEF728FF002818BFFDF730FD13
:1045A00040F2F830C2F2000001A90422FEF71CFF1D
:1045B000002818BFFDF724FD40F2F830C2F20000D9
:1045C00001A90822FEF710FF002818BFFDF718FD0B
:1045D00040F2F834C2F2000401A920460C22FEF792
:1045E00003FF002818BFFDF70BFD20680026A84236
:1045F0001096CDE90E660D960C9601D011B0F0BD67
:1046000043F630000B96C4F2020001680CAC41F096
:10461000010101600168022701F001010B910B9972
:104620000B96016841F0020101600068214600F02C
:1046300002000B900B98C0200C9005F5FE30CDE9E0
:104640000D76CDE90F67FDF7CDFE0320CDE90C0710
:1046500005F500302146CDE90E661097FDF7C2FE44
:1046600011B0F0BD80B58CB040F2404040F6000281
:104670000021C2F20000C4F20002C0E900210322BE
:104680004FF6FF73CDE903210122CDE90011C0E906
:10469000021301618161CDE90521CDE90711CDE961
:1046A00009210B9103A9FEF763FC002818BFFDF751
:1046B000A7FC40F24040C2F200006946FEF774FBDE
:1046C000002818BFFDF79CFC0CB080BD80B58CB0F5
:1046D00040F2884040F600420021C2F20000C4F2DD
:1046E0000002C0E9002103224FF0FF33CDE903218E
:1046F0000122CDE90011C0E9021301618161CDE918
:104700000521CDE90711CDE9092108210B9103A964
:10471000FEF72EFC002818BFFDF772FC40F288401F
:10472000C2F200006946FEF73FFB002818BFFDF704
:1047300067FC0CB080BD000080B540F2D04041F273
:104740000001C2F20000C4F2010100234FF00C0C82
:104750004FF4E13280E80E00C0E90333C0E905C33D
:10476000C361FFF707FB002808BF80BDBDE880409C
:10477000FDF746BC80B540F2185044F60001C2F285
:104780000000C4F2000100234FF00C0C4FF4E132A2
:1047900080E80E00C0E90333C0E905C3C361FFF739
:1047A000E9FA002808BF80BDBDE88040FDF728BCBD
:1047B000FEE7000010B540F2F834C2F200042046D3
:1047C0000021FEF775FF20460421FEF771FF204609
:1047D0000821FEF76DFF20460C21FEF769FF40F22D
:1047E0002030C2F200003C21FEF7F4FC40F2B03071
:1047F000C2F200003C21FEF7EDFC40F24040C2F264
:1048000000003C21FEF7E6FC40F28840C2F20000C6
:104810003C21BDE81040FEF7DDBC000063290B46DB
:10482000A8BF632313F1630FD8BF6FF0620303289F
:1048300088BF70472DE9F04740F60047C4F20207F1
:10484000A7F500654FF000094FF0010A4FF400444E
:104850004FF480424FF00008DFE800F01D020C1614
:10486000A7F580654FF001094FF0000A20241022BF
:1048700011E000BF4FF001084FF0000A4FF4007440
:104880004FF4807206E000BF4FF0000A4FF400645E
:104890004FF480623D46481E80B211F1060F88BF7A
:1048A0006FF00503052838BF06231FB228461146BE
:1048B000002F13D40122FDF76DFE28462146002269
:1048C000FDF768FE40F2F830C2F200000068BAF16D
:1048D000000F19D04763BDE8F04770470022FDF78D
:1048E00059FE284621460122FDF754FE40F2F830D9
:1048F000C2F200000068BAF1000FC7F100010BD04E
:104900004163BDE8F0477047B9F1000F0CD08763F1
:10491000BDE8F047704700BFB9F1000F0CD08163CC
:10492000BDE8F047704700BFB8F1000F0CBF076447
:10493000C763BDE8F0477047B8F1000F0CBF0164D2
:10494000C163BDE8F0477047FEE7000000F10C01CD
:1049500081EC030A0021C0ED091A80ED0A2AC0E9A2
:1049600006110162C0E900118160704780EC020A03
:1049700030EE602A90ED080A90ED031A90ED044A9B
:1049800090ED065A32EE003A90ED056A23EE040AE5
:1049900021EE021A31EE000A32EE451A26EE014AE5
:1049A00090ED091A34EE000AB4EE410AF1EE10FA65
:1049B00080ED075A80ED062A80ED083A80ED020A64
:1049C0000ADDB5EE402AF1EE10FAC4BF33EE420A1A
:1049D00080ED080A19E000BF90ED0A4AB4EE440ADF
:1049E000F1EE10FA0CDAB5EE402AF1EE10FABCBF87
:1049F00033EE420A80ED080AB0EE440A80ED024A26
:104A0000B4EE410AF1EE10FA03DDB0EE410A80ED9A
:104A1000021A90ED0A1AB4EE410AF1EE10FABCBF88
:104A200080ED021AB0EE410A70470000000000005D
:104A3000EFF30980BFF36F8F154B1A681EF0100F4C
:104A400008BF20ED108A20E9F04F10602DE9090021
:104A50004FF0500080F31188BFF34F8FBFF36F8F7B
:104A600001F0D6FB4FF0000080F31188BDE809008B
:104A700019680868B0E8F04F1EF0100F08BFB0ECDE
:104A8000108A80F30988BFF36F8F704700BF00BFA3
:104A9000E80000200023C0E90013028170470000F5
:104AA000B0F804C0C3889C450ED080B50268D25CC3
:104AB0000A70C188B0F808E00131B1FBFEF202FBD8
:104AC0001E11C180BDE88040BCEB030018BF01206F
:104AD0007047000080B5B0F804C0B0F808E00CF1F1
:104AE0000103B3FBFEF202FB1E33B0F806E0734590
:104AF00003D0026802F80C108380B3EB0E0018BFDD
:104B0000012080BD00000000000000000000000047
:104B1000074B19680868B0E8F04F80F30988BFF3C5
:104B20006F8F4FF0000080F31188704700BF00BF07
:104B3000E800002040F2D04040F27801C2F20000CC
:104B4000C2F200010122FFF709BA000083B010B5DC
:104B50009BB084461DA802AC0EC01DAA204661462B
:104B60000192FBF765FC002081B2615C89B140F0E5
:104B700001018AB2A25C5AB140F002018AB2A25C81
:104B800032B140F003018AB2A25C0430002AEBD1BA
:104B9000084682B240F2D040C2F2000002A94FF4AF
:104BA0007A73FFF70FFA1BB0BDE8104003B07047EF
:104BB000006841F20001C4F20101884218BF704749
:104BC00040F2780140F2D040C2F200010123C2F26B
:104BD000000001224B70FFF7C1B9000082B002F063
:104BE00055FB01AC019000BF20460A2101F0AAF953
:104BF000FDF762F8F8E7000041F20044C4F2020455
:104C000020464FF40071FDF7BDFC4FF4FA7000F040
:104C100017FBF5E7FDF780F90A2000F011FBF9E733
:104C200040F2CC04C2F2000460684FF0FF3100F0A3
:104C30004FFC0028F8D100F045FAF5E780B54FF0B9
:104C4000500080F31188BFF36F8FBFF34F8F02F0D6
:104C50002DFB30B14EF60450CEF200004FF08051E3
:104C60000160002080F3118880BD000070B592B013
:104C700006AC20463021FBF7FEFC002543F6400041
:104C80000595CDE90355CDE901550095C4F2020023
:104C90000168022641F080510160006800F08050F8
:104CA0000090009847F200000095C4F200000168EF
:104CB00041F480410160006800F480400090009859
:104CC000012006904FF4803007904FF480000D9043
:104CD00008200E904FF4A870CDE90F060420119023
:104CE00020460C96FDF786FE10B172B6FEE700BFB7
:104CF0000F20CDE901064FF4A05004904FF48050EE
:104D0000059001A805210395FDF744FD10B172B689
:104D1000FEE700BF12B070BD4EF68850CEF2000024
:104D2000016841F4700101607047000040F2F83002
:104D3000C2F20000FEF7AEBA40F26830C2F20000E4
:104D4000FEF7A8BAB0B540F6FF3E0568C4F2000E03
:104D500040F2004C7045C4F2010C25DCB0F1804FEC
:104D60002FD040F20043C4F20003984229D040F60D
:104D70000003C4F20003984223D041F6FF73C4F24B
:104D80000003984228DC70453ADCB0F1804F5BD0DC
:104D900040F20043C4F20003984255D040F60003AD
:104DA000C4F200034EE000BF40F60043C4F200032B
:104DB000984206D0604504D00023C4F20103984213
:104DC000DBD14B6825F0700243EA020541F6FF7320
:104DD000C4F200039842D6DD43F6FF73C4F2010328
:104DE00098421FDC42F20003C4F2000398422BD029
:104DF0000023C4F20103984226D0604524D028E065
:104E000040F60043C4F2000398421DD041F600036F
:104E1000C4F20003984217D041F60043C4F20003E5
:104E200010E000BF44F20003C4F2010398420BD02B
:104E300044F60003C4F20103984205D044F2004353
:104E4000C4F20103984204D1CB6825F4407243EACE
:104E500002050A688C684B69C46240F4806482620F
:104E6000644504BF09690163026825F0800142F0CE
:104E7000040219430260012242610160B0BD0000DA
:104E8000806B0021C185FEF7A9BC000081B090F8BD
:104E90004210222921D183680246B3F5805F09D1EF
:104EA00052F8281F52F8183C002B63D003685B6847
:104EB0000AE000BF52F8281F13B90369002BF5D090
:104EC00003685B6803F07F030B70116801311160A8
:104ED000C18D01390A04C18502D001B0704700BFFD
:104EE0000168CA6822F02002CA60CA6822F480728F
:104EF000CA604A6922F001024A61202180F842100A
:104F000000214163026B012A3CD10163016851E831
:104F1000031F026821F0100142E80313DBB10168AE
:104F200051E8031F026821F0100142E8031393B116
:104F3000016851E8031F026821F0100142E80313E1
:104F40004BB1016851E8031F026821F0100142E8EB
:104F50000313002BDAD101680A68D20606D50022B5
:104F600000920A680092496800910099818D01B011
:104F7000FEF732BC026852686FF35F2221F8022B01
:104F80008162A5E701B0FFF713B80000B0B5044691
:104F9000006804F108030ECB0569194325F4405558
:104FA0002A4302616269E3691143C268194349F205
:104FB0000C639A431143C1604169A26921F44071B5
:104FC00041F20043114340F48062C4F201039A426B
:104FD000416103D1FDF7C4FC02E000BFFDF7ACFC6A
:104FE000E1694FF69C7563681922C0F6FF75B1F54B
:104FF000004FA0FB02011FD15A00DB0FFBF7A0F905
:1050000048F21F51C5F2EB11A0FB01235A0905F12B
:10501000805302FB0300322303EBC000A0FB01011D
:105020004FF4F87000EA111000EB0210C1F34211C6
:10503000084421688860B0BD9A009B0FFBF780F997
:1050400048F21F51C5F2EB11A0FB01235A0902FBE4
:105050000500322303EB0010A0FB0101F02000EA61
:10506000511000EB0210C1F343110844216888601D
:10507000B0BD000040F2D040C2F20000FEF7B0BB6D
:1050800040F21850C2F20000FEF7AABBFEE7000093
:1050900010B540F27C04C2F2000440F2B061201D61
:1050A000C2F201014FF48072FFF7F4FC40F2185095
:1050B00004F11001C2F200000122BDE81040FEF729
:1050C0004DBF00002DE9F04F83B040F27C06C2F2E4
:1050D0000006341D0DF10B012046FFF7E1FCD8B3AB
:1050E00040F2E015C2F200054FF0000B0FF270081D
:1050F0000DF10409EA460DF10B0706E0A6F800B031
:1051000020463946FFF7CCFC30B39DF80B005328FE
:1051100002D1002103E000BF31887E2902D8685403
:10512000013131800A28EBD105F801B0284641460B
:105130004A465346FBF78EF90228DFD140F2D400ED
:10514000BDF80410009AC2F20000006841EA024172
:10515000002200F0DDF8D1E703B0BDE8F08F00BF1A
:10516000532C25642C25642C450A0000006844F665
:105170000001C4F20001884218BF704710B540F228
:105180007C04C2F20004217C201DFFF7A3FC207CDC
:105190000A2806D140F2D000C2F20000006800F0F8
:1051A0006DF940F2185004F11001C2F20000012222
:1051B000BDE81040FEF7D2BEFDF706FAFFF756FD38
:1051C000FFF79EF8FEF7CCFFFFF7D4FAFFF77AF966
:1051D000FFF7AAF9FFF7B0FAFFF744FAFFF73CF937
:1051E000FFF774FAFFF7A6FCFFF7E4FAFCF7E8FE16
:1051F000FCF70EFDFFF74CFF04A0FFF7A7FCFEF73E
:10520000D3FF00F025F800BFFEE700BF53797374A9
:10521000656D20496E697469616C697A65642E20D8
:105220005374617274696E672052544F53205363F4
:10523000686564756C65722E2E2E0D0A00000000E4
:1052400080B5012898BF012000F02CFE002080BD11
:1052500080B500F06FFF002080BD0000EFF30580F7
:10526000002808BF02F012B802F016B882686AB1CE
:10527000C3685BB180B582B0D0E900014FF0000C8B
:10528000CDF800C001F09AF902B080BDD0E900016C
:10529000002201F053B90000B0B582B004460020EE
:1052A000234643F8040F5960F1B10190EFF30580F4
:1052B000E0B101AA0846194601F06EFD01380199D6
:1052C000B0FA80F040094FEA00102060E9B14EF6D4
:1052D0000450CEF200004FF080510160BFF34F8FB9
:1052E000BFF36F8F02B0B0BD80200DE008461946B5
:1052F000154601F031FC012802D1102004E000BF66
:10530000002D18BF0125A801206002B0B0BD00002B
:1053100080B582B0019100210091EFF30581B9B110
:1053200001A96A46002301F015FB01281CD1009851
:10533000B8B14EF60450CEF200004FF0805101603B
:10534000BFF34F8FBFF36F8F002002B080BD00BF4F
:1053500001A90023012A98BF012201F09BF901282D
:1053600002D1002002B080BDFF2002B080BD00004D
:1053700041680120002908BF01F05CB801F090B835
:1053800080B582B000210191EFF30581A1B101A99F
:1053900001F084FB012819D1019850B14EF6045058
:1053A000CEF200004FF080510160BFF34F8FBFF38A
:1053B0006F8F002002B080BD00210022002301F089
:1053C00069F9013818BFFF2002B080BDFF2002B08C
:1053D00080BD000080B582B000220192C0B1EFF321
:1053E0000582CAB101AA002101F0D6FC01281BD117
:1053F0000198A8B14EF60450CEF200004FF0805153
:105400000160BFF34F8FBFF36F8F002002B080BDEC
:10541000802002B080BD00BF01F028FD012803D12B
:10542000002002B080BD00BFFF2002B080BD0000A0
:1054300010B582B043685BB101291BD10324012060
:1054400000210022009401F0B9F802B010BD00BFA5
:1054500001290FD101200021032201F06FF848B18A
:10546000002100220023044601F014F9204602B076
:1054700010BD00BF002002B010BD000080B582B09A
:1054800000210191EFF30581A1B101A901F006FB13
:10549000012819D1019850B14EF60450CEF2000007
:1054A0004FF080510160BFF34F8FBFF36F8F00202B
:1054B00002B080BD00210022002301F0EBF801388A
:1054C00018BFFF2002B080BDFF2002B080BD0000E9
:1054D00080B582B000220192C0B1EFF30582CAB15B
:1054E00001AA002101F058FC01281BD10198A8B1A4
:1054F0004EF60450CEF200004FF080510160BFF331
:105500004F8FBFF36F8F002002B080BD802002B0AC
:1055100080BD00BF01F0AAFC012803D1002002B029
:1055200080BD00BFFF2002B080BD0000B0B584B0D8
:1055300043698E4693B1846984B10589D0E9001C22
:10554000026928B2843D18BFC51CCDE900536046EE
:105550007346029401F04EFE04B0B0BD0589D0E957
:105560000013028A28B2843D18BFC51C03AC18463C
:105570007346CDE9005401F00DFE0399012818BFD0
:105580000021084604B0B0BDF0B581B040F2E80497
:10559000C2F200040E46E76921680546081D00F0C6
:1055A000FBFA18B1681C0CD016E000BF206801217E
:1055B000C06A626801FA00F022EA00006060681CBC
:1055C0000AD14EB154F8500B011D204601B0BDE880
:1055D000F04000F05FBB00BF2068ED19456007D3C5
:1055E000606B2168043101B0BDE8F04000F020BBE1
:1055F000206B2168043100F01BFB606A854238BFD4
:10560000656201B0F0BD00002DE9F041044600F0F4
:1056100059FB40F2E806C2F20006306940F220650C
:10562000013030613068C2F2000548B1706900286D
:1056300040D13068E16AC06A884298BF346039E07E
:1056400034603069012835D1284600F0E1FA05F1CF
:10565000140000F0DDFA05F1280000F0D9FA05F198
:105660003C0000F0D5FA05F1500000F0D1FA05F148
:10567000640000F0CDFA05F1780000F0C9FA40F2BC
:10568000B818C2F20008404600F0C2FA08F1140748
:10569000384600F0BDFA06F1640000F0B9FA06F1F0
:1056A0003C0000F0B5FA06F1500000F0B1FAC6F87F
:1056B000308077637068B16801220131B160E16ABE
:1056C0008A401043706001EB810005EB8000211DD2
:1056D00000F0E0FA00F01AFB706988B13068E16A06
:1056E000C06A884228BFBDE8F0814EF60450CEF271
:1056F00000004FF080510160BFF34F8FBFF36F8FF9
:10570000BDE8F08140F2E80540F220664EF604580C
:10571000C2F20005C2F20006CEF200084FF0805738
:1057200003E000BF204600F009FBE868D0B100F0BC
:10573000C9FAA86CC468201D00F02EFA2869013847
:105740002861E8680138E86000F0E0FA94F8510058
:105750000228EAD00128E5D070B9206B00F0EEFAFB
:10576000E0E700BF30680228DFD3C8F80070BFF35D
:105770004F8FBFF36F8FD8E74FF0500080F3118841
:10578000BFF36F8FBFF34F8FFEE700002DE9F047A7
:105790000A9C8246206B16460F46DDE908599100A7
:1057A000A5229846FAF75FFF206B002F00EB8600DA
:1057B000A0F1040020F0070644D0387884F83400C3
:1057C000D8B3787884F83500B8B3B87884F8360060
:1057D00098B3F87884F8370078B3387984F83800CB
:1057E00058B3787984F8390038B3B87984F83A0036
:1057F00018B3F87984F83B00F8B1387A84F83C00A3
:10580000D8B1787A84F83D00B8B1B87A84F83E000F
:1058100098B1F87A84F83F0078B1387B84F840007A
:1058200058B1787B84F8410038B1B87B84F84200E5
:1058300000281CBFF87B84F84300002084F8430054
:1058400003E000BF002084F834000027201D062D4F
:1058500028BF0625E562C4E9115700F0E5F904F117
:10586000180000F0E1F985F00700A06130465146CC
:10587000424624616462E76484F8507000F07AF96B
:10588000B9F1000F206018BFC9F80040BDE8F087EB
:1058900008480068006880F308884FF0000080F333
:1058A000148862B661B6BFF34F8FBFF36F8F00DF0E
:1058B00000BF000008ED00E081B00020009040F241
:1058C0001400C2F2000000684FF0500181F311880B
:1058D000BFF36F8FBFF34F8F013007D0FEE700BFDC
:1058E000009830B9009820B9009810B900980028A5
:1058F000F6D001B070470000F0B581B0044600F06A
:10590000E1F994F94560012E0FDB04F1240500BF95
:10591000286850B1284601F0F9FD002818BF00F0B2
:105920008BFBF0B2013E0128F2D8FF2684F84560D7
:1059300000F0ECF900F0C6F994F94470012F0EDB89
:1059400004F11005286850B1284601F0DFFD002859
:1059500018BF00F071FBF8B2013F0128F2D884F8BB
:10596000446001B0BDE8F04000F0D0B970B5044625
:1059700000F046FC40F2601CC2F2000CDCF804208F
:1059800052B19CF80000002818BF4FF000404FF0C3
:10599000000544BB81E000BF40F2AC60C2F20000F1
:1059A000420700F5803200F1070122F0070218BF1C
:1059B00021F007000021A2F10803CCE90601CCF890
:1059C000043042E90211DCF80420191AC0E9002170
:1059D00001208CF800004FF00040CCE90211002CAF
:1059E0004FF0000559D0204057D124F0070000F1B6
:1059F0001003600708BF04F10803DCF80800591E13
:105A000081424AD2604650F818EFDEF804509D42B9
:105A10002BD2DEF80010B9B174464D689D4217D202
:105A20000E68AEB175689D4216D23068A0B1456867
:105A30009D4215D204689CB165689D4214D22168CC
:105A4000A6460029E9D110E00CF118000DE000BFD6
:105A50008E46204609E000BFB646084605E000BF76
:105A60008646304601E000BFA646964514D002683F
:105A7000DEF80040E91A112904604DD30EEB03054E
:105A8000680719D04FF0500080F31188BFF36F8F73
:105A9000BFF34F8FFEE700BF002501F071FD6807DF
:105AA0005AD04FF0500080F31188BFF36F8FBFF3CF
:105AB0004F8F00BFFEE700BF0CF118006960CEF801
:105AC000043000BF0168A9420AD20868A8420BD27C
:105AD0000168A94204D208680B46A842F2D304E048
